:1000000080360020291A0000F3900000151A000025
:10001000151A0000151A0000151A00000000000053
:10002000000000000000000000000000E91B0000CC
:10003000151A000000000000851B0000151A0000C2
:10004000C51D0000C51D0000C51D0000C51D000028
:10005000C51D0000C51D0000C51D0000C51D000018
:10006000C51D0000C51D0000C51D0000C51D000008
:10007000C51D0000C51D0000C51D0000C51D0000F8
:10008000C51D0000C51D0000C51D0000C51D0000E8
:10009000C51D0000C51D0000C51D0000C51D0000D8
:1000A000C51D0000C51D0000C51D0000C51D0000C8
:1000B000C51D0000C51D0000C51D0000C51D0000B8
:1000C000C51D0000C51D0000C51D0000C51D0000A8
:1000D000C51D0000C51D0000C51D0000C51D000098
:1000E000C51D0000C51D0000C51D0000C51D000088
:1000F000C51D0000C51D0000C51D0000C51D000078
:100100004FF0FF0C1CEAD0521EBF1CEAD15392EAFA
:100110000C0F93EA0C0F6FD01A4480EA010C4002D6
:1001200018BF5FEA41211ED04FF0006343EA501030
:1001300043EA5111A0FB01310CF00040B1F5000F72
:100140003EBF490041EAD3715B0040EA010062F121
:100150007F02FD2A1DD8B3F1004F40EBC25008BF0B
:1001600020F00100704790F0000F0CF0004C08BF29
:1001700049024CEA502040EA51207F3AC2BFD2F1F6
:10018000FF0340EAC250704740F400004FF0000304
:10019000013A5DDC12F1190FDCBF00F0004070473E
:1001A000C2F10002410021FA02F1C2F1200200FA7C
:1001B00002FC5FEA310040F1000053EA4C0308BF43
:1001C00020EADC70704792F0000F00F0004C02BF94
:1001D000400010F4000F013AF9D040EA0C0093F00F
:1001E000000F01F0004C02BF490011F4000F013B69
:1001F000F9D041EA0C018FE70CEAD15392EA0C0FD7
:1002000018BF93EA0C0F0AD030F0004C18BF31F041
:10021000004CD8D180EA010000F00040704790F017
:10022000000F17BF90F0004F084691F0000F91F0BB
:10023000004F14D092EA0C0F01D142020FD193EA81
:100240000C0F03D14B0218BF084608D180EA010009
:1002500000F0004040F0FE4040F40000704740F0E5
:10026000FE4040F44000704780F0004002E000BFD4
:1002700081F0004142001FBF5FEA410392EA030F91
:100280007FEA226C7FEA236C6AD04FEA1262D2EBDB
:100290001363C1BFD218414048404140B8BF5B42E0
:1002A000192B88BF704710F0004F40F4000020F079
:1002B0007F4018BF404211F0004F41F4000121F08F
:1002C0007F4118BF494292EA030F3FD0A2F10102D9
:1002D00041FA03FC10EB0C00C3F1200301FA03F117
:1002E00000F0004302D5494260EB4000B0F5000F3A
:1002F00013D3B0F1807F06D340084FEA310102F1F9
:100300000102FE2A51D2B1F1004F40EBC25008BFAA
:1003100020F0010040EA03007047490040EB000074
:10032000013A28BFB0F5000FEDD2B0FA80FCACF175
:10033000080CB2EB0C0200FA0CF0AABF00EBC250A2
:1003400052421843BCBFD0401843704792F0000F90
:1003500081F4000106BF80F400000132013BB5E7E3
:100360004FEA41037FEA226C18BF7FEA236C21D059
:1003700092EA030F04D092F0000F08BF08467047BE
:1003800090EA010F1CBF0020704712F07F4F04D18C
:10039000400028BF40F00040704712F100723CBF9F
:1003A00000F50000704700F0004343F0FE4040F4C9
:1003B000000070477FEA226216BF08467FEA236387
:1003C0000146420206BF5FEA412390EA010F40F472
:1003D000800070474FF0000304E000BF10F00043BE
:1003E00048BF40425FEA000C08BF704743F09643A5
:1003F00001464FF000001CE050EA010208BF7047C0
:100400004FF000030AE000BF50EA010208BF704746
:1004100011F0004302D5404261EB41015FEA010C5B
:1004200002BF84460146002043F0B64308BFA3F153
:100430008053A3F50003BCFA8CF2083AA3EBC25335
:1004400010DB01FA02FC634400FA02FCC2F1200254
:10045000BCF1004F20FA02F243EB020008BF20F08B
:100460000100704702F1200201FA02FCC2F12002F1
:1004700050EA4C0021FA02F243EB020008BF20EAE6
:10048000DC7070474FF0FF3C06E000BF4FF0010CFE
:1004900002E000BF4FF0010C4DF804CD4FEA4002DE
:1004A0004FEA41037FEA226C18BF7FEA236C11D028
:1004B00001B052EA530C18BF90EA010F58BFB2EBDB
:1004C000030088BFC81738BF6FEAE17018BF40F05B
:1004D000010070477FEA226C02D15FEA402C05D10F
:1004E0007FEA236CE4D15FEA412CE1D05DF8040B94
:1004F000704700BF844608466146FFE70FB5FFF727
:10050000C9FF002848BF10F1000F0FBD4DF808EDDE
:10051000FFF7F4FF0CBF012000205DF808FB00BFCF
:100520004DF808EDFFF7EAFF34BF012000205DF829
:1005300008FB00BF4DF808EDFFF7E0FF94BF012076
:1005400000205DF808FB00BF4DF808EDFFF7D2FF73
:1005500094BF012000205DF808FB00BF4DF808EDB6
:10056000FFF7C8FF34BF012000205DF808FB00BF83
:100570004FEA4002B2F1FE4F0FD34FF09E03B3EBB0
:1005800012620DD94FEA002343F0004310F0004FF0
:1005900023FA02F018BF404270474FF00000704746
:1005A00012F1610F01D1420205D110F0004008BFE5
:1005B0006FF0004070474FF00000704753B94AB9E0
:1005C000002908BF00281CBF4FF0FF314FF0FF305B
:1005D00000F00CB8ADF1080C6DE904CE00F008F89D
:1005E000DDF804E0DDE9022304B07047704700BF86
:1005F0002DE9F04786468C460846089E1546744607
:100600001946002B40F0C2808542B2FA82F245D9E9
:100610004AB1C2F1200300FA02FC2EFA03F395401E
:1006200043EA0C0C94404FEA154EA8B2BCFBFEF80E
:10063000230C0EFB18CC08FB00F943EA0C43994548
:1006400028D9EB1808F1FF3704D2994502D9A8F14F
:1006500002072B44A3EB0903A4B2B3FBFEFC0EFB81
:100660001C330CFB00F044EA0344A04214D92C19BB
:100670000CF1FF3304D2A04202D9ACF102032C44A6
:10068000241A43EA07401EB1D4400023346073604B
:10069000BDE8F0874746DDE76346F1E792BB431BC1
:1006A00001214FEA154EAFB2B3FBFEFC200C0EFB4E
:1006B0001C330CFB07F840EA0343984562D9EB185A
:1006C0000CF1FF3004D2984502D9ACF102002B4462
:1006D000A3EB0803A4B2B3FBFEFC0EFB1C330CFB24
:1006E00007F744EA0344A7424ED92C190CF1FF3313
:1006F00004D2A74202D9ACF102032C44E41B43EA22
:100700000040C0E7C2F1200320FA03F19540904079
:100710002EFA03F303434FEA154EAFB2B1FBFEFCD2
:100720000EFB1C10190C0CFB07F841EA0041884530
:1007300004FA02F422D969180CF1FF3004D288457A
:1007400002D9ACF102002944A1EB08019BB2B1FB34
:10075000FEFC0EFB1C110CFB07F743EA01439F4212
:100760000ED9EB180CF1FF3104D29F4202D9ACF143
:1007700002012B44DB1B41EA004192E76046E3E7BC
:100780006146F7E76046A3E76346B7E7834206D9C9
:1007900016B9002108467BE7C6E900E0F9E7B3FA9D
:1007A00083F78FB9834201D3724508D8BEEB0204A8
:1007B00060EB030301209C461EB9002168E7384620
:1007C000FAE7C6E9004CF8E7C7F1200CBB4022FA73
:1007D0000CF41C432EFA0CF120FA0CF3B840014340
:1007E0004FEA14490EFA07F5B3FBF9F81FFA84FE35
:1007F00009FB18300B0C08FB0EFA43EA00439A453C
:1008000002FA07F240D9E31808F1FF3004D29A4502
:1008100002D9A8F102002344A3EB0A0389B2B3FB77
:10082000F9F809FB183308FB0EFE41EA03418E4537
:100830002CD9611808F1FF3304D28E4502D9A8F1F2
:100840000203214443EA0040A0FB0298A1EB0E0101
:100850004145CE46434602D306D14D4504D2B9EBBD
:10086000020E68EB04030138002EA6D0B5EB0E0291
:1008700061EB030101FA0CFC22FA07F34CEA0303D3
:10088000F940C6E9003198E74046C5E74346D9E755
:10089000034613F8012B002AFBD1181A01387047C0
:1008A0002DE9F04F89B00590294FBB68039306AA44
:1008B0005B68012138469847002839DBDDE9064AA4
:1008C000244EDFF89480A4FB06B306FB0A3304939E
:1008D00004991DA3D3E900235846FFF76FFE4FF09C
:1008E000FF39049BD94578EB0303054623D3059BC9
:1008F000642B28BF642373436422B3FBF2F3A3FB8E
:10090000046403FB0A4421460FA3D3E900233046C5
:10091000FFF754FEB14578EB040403460BD3854240
:100920000CD3039A01210091146838462A46A04747
:1009300009B0BDE8F08F6FF08500F9E76FF01500A2
:10094000F6E700BFAFF3008000CA9A3B000000004A
:10095000F4A3000080969800FFC99A3B2DE9F84F58
:10096000DFF854914FF0000847464C46C246C34654
:1009700000F032FA0546F0B9014600F0A9FB29461D
:10098000012000F0A5FB2946022000F0A1FB29462A
:10099000032000F09DFB2846FFF782FF4FF4FA701A
:1009A00008F007FAA5F57A7557465C462E46A0462C
:1009B000A9463446DCE700F0A3F9064600F0B0F99A
:1009C000B442054601D1814504D03C482A4631460F
:1009D00008F035FAA81BFFF701FD4FF07C510446E3
:1009E000FFF78EFB01463846FFF744FC21460746D9
:1009F0002046FFF73FFC324981463846FFF780FB2F
:100A000001464846FFF736FC414681462046FFF73F
:100A10002FFC0146FFF72EFC01464846FFF72AFC53
:100A200051468046FFF77CFDF8B926494046FFF75E
:100A300095FDE0B94046FFF79BFDC0F16400C0B2F0
:100A4000FFF72EFF4FF080412046FFF787FD8146DC
:100A500080B10021012000F03BFB022000F040FBB0
:100A60000021032000F034FB16E0D046E2E7DFF877
:100A70005480DFE74FF040412046FFF751FD8046AC
:100A800078B14946012000F023FB0220494600F0DE
:100A90001FFB032000F024FB4FF4FA7008F089F9E3
:100AA00085E70121084600F013FB4146022000F0D3
:100AB0000FFB4146D5E700BF18FCFFFF3CAA000032
:100AC000CDCCCC3D0000C84238B50C4C0C4D237841
:100AD00023B94FF4FA7008F06CF9F8E72B78002B83
:100AE000F7D000F079F90028F3D000F061FB00287E
:100AF00001DB00F0F5F84FF47A70ECE79217002074
:100B00009117002008B5174808F099F900F0FAFA93
:100B100000F0DCF908F05DF900F086FB002804DA4B
:100B2000BDE80840104808F08AB93220FFF7B8FE47
:100B30000E4808F084F90E4808F081F90D4808F0D5
:100B40007EF90D4808F07BF90C4808F078F90C485C
:100B500008F075F90B4B0C481968BDE8084008F01F
:100B60006EB900BF82AA00008EAA00009FAA0000F2
:100B7000A7AA00001BAB000047AB0000BCAB000005
:100B8000FFAB0000D40000202CAC000070B503784F
:100B90000D468CB00446013911F8012F9AB903AE05
:100BA0000A4ADBB20421304607F004FE084A234615
:100BB0002021CDE9005604A807F0FCFD04A800F0B0
:100BC000B7F90CB070BD1344E6E700BF86AC000077
:100BD0008BAC000030B5052985B004462FDD0378C5
:100BE000232B2CD1421812F8013C212B27D1431F73
:100BF0001944002310F8015F88422B44FAD112F8FF
:100C0000041C8DF8041012F8031C12F8022C8DF845
:100C100005108DF80620DBB2224A042102A807F055
:100C2000C9FD032202A901A809F0A3FA054678B17B
:100C30001D491E48FFF7AAFF6FF0010505E01A499C
:100C40001B48FFF7A3FF4FF0FF35284605B030BD26
:100C500063784D2B10D0532B1ED0432B1FD100F0A7
:100C60004FF806210346134A02A807F0A3FD1248D5
:100C700002A9FFF78BFFE8E7A3788DF80830E37847
:100C80008DF809308DF80B0023798DF80A3002A811
:100C900009F06BFA00F090F803490848E9E70249C7
:100CA0000748E6E786AC000007AE000097AC0000FE
:100CB00094AC00009AAC0000A0AC0000A2AC000014
:100CC000A5AC000002460B46014804F051BB00BF32
:100CD000BC020020014804F00FBB00BFBC02002092
:100CE00010B54FF0FF3104464FF0FF30FFF7EAFF39
:100CF000024B1C60BDE81040FFF7ECBFE000002095
:100D000010B54FF0FF304FF0FF31FFF7DBFF034B23
:100D10001C68FFF7DFFF204610BD00BFE000002089
:100D200010B54FF0FF304FF0FF31FFF7CBFF034B13
:100D30001C68FFF7CFFF204610BD00BFDC0000207D
:100D400008B54FF0FF314FF0FF30FFF7BBFF064A09
:100D50000649136809688B42BCBF01331360BDE8C4
:100D60000840FFF7B7BF00BFDC000020D80000201C
:100D700008B54FF0FF304FF0FF31FFF7A3FF054AF2
:100D80001368002BC4BF03F1FF331360BDE80840B4
:100D9000FFF7A0BFDC00002010B54FF0FF31044684
:100DA0004FF0FF30FFF78EFF024B1C60BDE8104094
:100DB000FFF790BFDC00002010B54FF0FF31044674
:100DC0004FF0FF30FFF77EFF024B1C60BDE8104084
:100DD000FFF780BFD800002010B54FF0FF304FF074
:100DE000FF31FFF76FFF034B1C78FFF773FF2046BF
:100DF00010BD00BF9317002008B54FF0FF304FF033
:100E0000FF31FFF75FFF044A137883F0010313708B
:100E1000BDE80840FFF75EBF931700202DE9F047BB
:100E20000B78022B0D4635D0052B39D0BDE8F08765
:100E3000AB6809EB0602D35C232B0DD100222260A4
:100E400022683E2A03DC2268511CBB542160013613
:100E5000EB68B342ECD8E9E722683E2ADFBF22689C
:100E6000511CBB542160212BF1D123681249134836
:100E70004FF0000807F8038007F0E1FF21680E48F3
:100E8000FFF7A8FE402241460B48C4F8008009F055
:100E90000DFADCE7DFF828900A4C074F0026D7E769
:100EA000094B186883680649DC684022A4464FF461
:100EB0007A73BDE8F047604794170020A8AC0000A3
:100EC000D417002028050020E400002010B5114CA4
:100ED000206808F078FF20B90F48BDE8104007F0FF
:100EE000AEBF206883681B680BB90C48F5E70C4956
:100EF000002298470028F8D1206883680949DC68F7
:100F000040224FF47A73A04708B10748E5E7074845
:100F1000E3E700BFE4000020BBAC0000D2AC00005F
:100F20001D0E0000D4170020EFAC000009AD00003A
:100F300070B5084B04461D68FFF7AAFC0246AB6873
:100F40005E6821462846B4464FF0FF33BDE8704046
:100F5000604700BFE400002038B54B4B99422ED1CA
:100F60004A4B1A785AB901221A70494B49481968F4
:100F700007F065FF4848BDE8384007F060BF474BC1
:100F80001A7892B901221A70414B454C1868FFF744
:100F900003FF2068FFF710FF2168424807F04FFF6A
:100FA000414807F04CFF4148E5E7FFF725FFFFF711
:100FB00013FFBDE8384001463D4807F00BBF03F181
:100FC0000C02914233D1314D2B7853B9304A13681A
:100FD000013313602E4B37481968BDE8384007F0DD
:100FE0002EBF2E4C237863B92D4A1368013313604A
:100FF0002B4B31481A68264B1968BDE8384007F07A
:101000001EBFFFF79DFE2B78002BE3D02378002B2B
:10101000EED0FFF775FE0546FFF782FE0146044657
:101020001C4807F00CFF254822462946E5E703F156
:101030002402914210D1154D2B781BB9144A136824
:10104000013BC6E7154C23781BB9154A1368013BD1
:10105000CDE7FFF78DFED6E71833994212D10B4B3F
:101060001B787BB10D4B1B7863B1154A137883F065
:101070000103137023B1134807F0E1FE12487AE729
:10108000124878E738BD00BF2C05002092170020D9
:10109000D40000201BAD000047AD000091170020D8
:1010A000D000002095AD0000C1AD0000DEAD000015
:1010B00028A6000008AE000053AE00003DAA0000C4
:1010C000901700209FAE0000F1AE0000FBAE0000C4
:1010D000024B03EBC00007F07DBE00BF28A6000056
:1010E00010B5064B064C03EBC000217807F072FEEA
:1010F000237883F00103237010BD00BF28A60000F1
:10110000141800202DE9F047254C0025206808F030
:101110005AFE002842D020464FF4B011013507F0A6
:101120006DFE042D04F10804F0D11E4C1E4DDFF8B5
:101130007C9000264FF001082768384608F043FEEF
:1011400060B320464FF4803107F058FE20682179C3
:101150008368D3F818A0BAF1000F0CD003691B689C
:1011600008FA01F21A4214BF4FF000734FF0806387
:101170004FF0A072D047237908FA03F3C5E9019331
:10118000BB68DB691BB10122294638469847013606
:10119000042E04F1080405F10C05CDD1BDE8F0875B
:1011A00028A6000008A600002C050020590F00000A
:1011B000F0B585B000238DF802308DF80330184C5F
:1011C000204608F000FE38B92168164807F037FEBF
:1011D0004FF0FF3005B0F0BD0DF103030193012581
:1011E000022302958DF80C30A6684D23B7682A4675
:1011F00001A92046B8470028EAD10DF10203CDE944
:10120000013503238DF80C304D23B6682A4601A919
:101210002046B0470028DBD19DF90200DAE700BF85
:10122000E0A3000032AF000008B5074808F0CBFD8E
:1012300020B1BDE808400020FFF732BB034807F0AB
:10124000FEFD4FF0FF3008BDF4A300004CAF0000DE
:10125000014B1B68184700BFE8000020014B1860D5
:10126000704700BFE800002030B585B004460D4649
:1012700010220021684609F019F802238DF8023087
:101280002A46044B01932146684607F035FB05B01A
:1012900030BD00BF5112000080B505460E4617460E
:1012A000984604F025FC034609F010F8DFF8189082
:1012B000044649F80030424630463946A84754F8BB
:1012C000090000F031FC00BF080000002DE9F047E4
:1012D000058B04462807904611D4022905F007051E
:1012E00040F0CD80204607F020FE78B10138218BF8
:1012F000042811D8DFE800F0C3106D85950001299E
:101300000CBF45F0100545F02005258388F31188B2
:10131000BFF36F8FBDE8F08701F0070AAA4500F020
:10132000A6800027B9463E46A368002B00F0BD808A
:1013300041F00801218388F31188BFF36F8FA16802
:10134000002900F0BB800D68002900F0B780D1F8BB
:101350000480334652462046C047002D76D02B6885
:1013600029461D46F0E701F007035A1F012A1BD842
:10137000002221F00701062B276889B2C4E9002268
:1013800009D13B4603E0628B013262831B68002B6C
:10139000F9D141F002012183204607F0C6FD002863
:1013A0007BD041F0200177E0042B0AD121F0070126
:1013B00089B22183204607F0B8FD10B141F0200129
:1013C0002183218B01F0070AAA4550D00027B94696
:1013D000AAE7236921F0070141F00601062DD3F8A1
:1013E000009021832DD1B9F1000F40D041F00801C8
:1013F000218388F31188BFF36F8F3A492046C8478D
:1014000029E021F00701236941F0040189B2042D8C
:10141000D3F804902183E6D000273E464FF0040A1B
:1014200082E721F00701236941F0050189B2052D0A
:10143000D3F808902183D6D000273E464FF0050A06
:1014400072E700273E464FF0060A6DE72B4687E716
:10145000B9F1000FD1D14FF02003EFF3118883F3DE
:101460001288BFF36F8F238B23F008032383258B10
:10147000EA062ED525F01003238305F007056669DB
:10148000218B002EBFF66FAF00232768C4E900331D
:1014900021F0070141F001012183218B01F0070AAE
:1014A000AA454FF000097FF43FAF002F9BD041F0D9
:1014B0000801218388F31188BFF36F8F002FC7D0F5
:1014C0003D68394633465246204607F05AFD2F46BE
:1014D000F4E7AB067FF51AAF25F02003238305F070
:1014E0000705FFE6AF8F000008B504464FF0200265
:1014F000EFF3118382F31288BFF36F8F02F06EFA5D
:10150000204600F0BBFA034807F099FC00F034FCD9
:10151000FCE700BF63AF0000014B03600020704791
:1015200048A60000014804F043BD00BF48A60000E3
:1015300038B5044618B90F4B0F485B689847616887
:10154000B1F5683F10D0B1F5680F0DD00B4DA94231
:101550000AD011F46861206807D00146084808F0F5
:1015600065FC00232360656038BD142208F09EFEF0
:10157000F9E700BFFC0100208CAF00002C5F5CA9E4
:101580005C0A002008B520B34368B3F5683F10D16A
:1015900001220368BFF35B8F53E8001F002903D1CA
:1015A00043E800200028F7D1BFF35B8F0DD1002066
:1015B00008BD094A93420AD000684FF0FF324FF04D
:1015C000FF3303F0D5FE0028F1D00448F0E70448CB
:1015D000EEE76FF4E040EBE72C5F5CA9E98FFFFFDB
:1015E000EA8FFFFF08B5D8B14368B3F5683F10D163
:1015F00000220368BFF35B8F53E8001F012903D16A
:1016000043E800200028F7D1BFF35B8F0BD1002007
:1016100008BD074A934208D0006803F06DFEF6E764
:101620006FF4E040F4E70348F2E70348F0E700BF57
:101630002C5F5CA9E98FFFFFEA8FFFFF10B504461E
:1016400018B91D4B1D485B6898476368B3F5683F40
:101650002FD0B3F5680F2CD0194A934219D12368C3
:1016600003BB18484FF0FF324FF0FF33214603F021
:1016700089FD08B923681BB90F4B13485B6898476D
:1016800020681422002108F011FE4FF468636360A3
:1016900008E0B3F5683F0DD83A2B03D040F6BA62A4
:1016A0009342DED1206808F001FC636843F03A03FE
:1016B000636010BD054AF3E7FC0100208CAF000019
:1016C0002C5F5CA95C0A0020B2AF00003A00003A2F
:1016D00008B5064906484023142208F099FBBDE8E6
:1016E00008400449044804F027BD00BF5C05002001
:1016F0005C0A002050A6000064A6000030BFFFF77F
:10170000FDBF00BF114B124A2DE9F041D518DFF89B
:101710004480013DB5FBF3F55D430F4B08EB03043B
:10172000013CB4FBF3F403FB04540E1B07460B49C6
:10173000304608F093FD701942460021083E08F03B
:10174000B5FD3E6704F10800BDE8F081010000002E
:1017500000000000080000000400000000A60000D7
:10176000044B99685869884203D003494FF080526E
:101770000A607047A00C002004ED00E070B5264B15
:1017800015469A6A12F0100F9A6A14BF1124102499
:1017900012F0080F9A6A18BF1224920706460AD55B
:1017A000586B9A6A140634D519B19A6A22F08002ED
:1017B0009A62132401E06FF01500174B9A6A12F039
:1017C000010F9A6A18BF142412F0200F9A6A18BFEA
:1017D0001524D20602D49B6A9B070AD50E4B5B6880
:1017E000190506D5314600F08FFA10B180F309884B
:1017F0000224094B9A6A920642BF5A6A22F40052A6
:101800005A629A6A42F0FF029A6200232B702046C5
:1018100070BD6FF01500CCE700ED00E0134B9A6A45
:1018200012F0007F9A6A14BF1E201D2012F0807FE4
:101830009A6A18BF1F2012F4002F9A6A18BF21203D
:1018400012F4802F9A6A18BF222012F4003F9A6A7D
:1018500018BF232012F4803F9A6A6FEA02426FEAAF
:1018600012429A6218BF2420704700BF00ED00E0CA
:1018700010B5194B0246986A9C6A10F4805F14BF39
:101880001720162014F4006F9C6A18BF1820A405B6
:1018900009D5986B986A000404D51AB19A6A22F4A3
:1018A00000429A6219200C4B9A6A12F4806F9A6A6D
:1018B00018BF1A20D2050CD49B6A13F4005F18BF1E
:1018C0001C20054A936A43F47F43936200230B7004
:1018D00010BD1B20F5E700BF00ED00E0F0B5484B60
:1018E0005B688BB00446C3F30803002585F31188B9
:1018F000BFF36F8F02F07F40B0F17F4F11D102F044
:101900000C0008280DD010074CBF0C460125002202
:10191000033B8DF80720032B05D8DFE803F0246391
:1019200067602C46F3E700239DF80720CAB902AE92
:1019300004F1200720686168324603C20834BC42C3
:101940001646F7D1099A002D54D0C2F3080121B9E7
:101950006FEA52226FEA4222099202A9184607F062
:10196000C2FB0BB0F0BD264BDA6A9107DBD4DA6A12
:10197000002AD8DBDA6A5200D5D55A69A16942F447
:1019800080725A61BFF34F8FBFF36F8F5A6931F87E
:10199000021C22F480725A61BFF34F8FBFF36F8F26
:1019A0004DF6027291420AD09A6AD2B24AB10DF152
:1019B000070201212046FFF7E1FE0346B4E7236852
:1019C000B2E79A6A12F47F4F05D00DF107010120AA
:1019D000FFF74EFFF1E79B6AB3F5803FA3D3FFF714
:1019E0001DFFEAE70DF107020021E3E70DF1070112
:1019F0000020EDE722F4FF7222F00102ACE700BF05
:101A000000ED00E0024A536943F010035361704750
:101A100000ED00E0EFF30880EFF3098101B57246B5
:101A2000FFF75CFF01BD00BF002080F31488BFF307
:101A30006F8F00F027FB00200D490860BFF34F8F28
:101A40000C4880F3088800F03DF8202080F31188CE
:101A500009484FF40461401880F30988EFF31480BB
:101A60000221084380F31488BFF36F8F00F014F94C
:101A700094ED00E080360020C0240020BFF34F8F9B
:101A80000549064BCA6802F4E0621343CB60BFF31A
:101A90004F8F00BFFDE700BF00ED00E00400FA0536
:101AA0000749D1F890200023C2F307221846934239
:101AB00000DB7047C1F89830C1F8A0000133F6E7A9
:101AC00000ED00E008B572B6002383F31388FFF73A
:101AD000E7FF144B4FF0FF32C3F88020C3F8842097
:101AE000C3F88820C3F88C20C3F89020C3F8942052
:101AF000C3F89820C3F89C20C3F88021C3F8842140
:101B0000C3F88821C3F88C21C3F89021C3F894212D
:101B1000C3F89821C3F89C2162B6BFF34F8FBFF37F
:101B20006F8F08BD00E100E0084B9B6883420BD13A
:101B3000EFF3058343B1064B5A6842F080525A6076
:101B40005A6A22F400425A6208F0A9BAA00C002096
:101B500000ED00E0094A93686FF00A0199670849AF
:101B600058674B6843F080534B60002383F3118820
:101B7000BFF36F8F9368986F704700BFA00C002071
:101B800000ED00E015498A684FF030001044EFF393
:101B9000098C80E8F01F202080F31288BFF36F8F3C
:101BA0000F4F4FF000664A698A603E604FF0700444
:101BB000141920680B4C2060506F0023536780F38A
:101BC000118804B5104600F01DF9BDE8044002F18B
:101BD000300090E8F01F8CF309887047A00C0020BB
:101BE00004ED00E0780A00201EF0040F0CBFEFF3B4
:101BF0000880EFF30980816911F8021C0229FFD0E7
:101C000001B507F072FA01BD40B2002807DB044AB3
:101C10004109012300F01F00834042F82130704742
:101C200000E100E040B200280CDB4309064900F067
:101C30001F0020330122824041F82320BFF34F8F41
:101C4000BFF36F8F704700BF00E100E0054B420912
:101C500000F01F0053F82220012303FA00F0104087
:101C6000704700BF00E100E040B20028A8BF00F1CB
:101C7000604001F10101B8BF064B4FEA4111ACBF12
:101C800000F5614000F00F00C9B2B4BF195480F8EC
:101C90000013704714ED00E00B4A08B50B4B22F01F
:101CA0007F029A60BFF34F8FBFF36F8FD3F8882006
:101CB00022F47002C3F8882003F092F903F01EFFAB
:101CC00000F074F803F0DEF90000000000ED00E021
:101CD00042F8203C009B42F81C3C0A49019B42F818
:101CE000183C029B42F8143C21F001014FF0807334
:101CF00042F8043C42F8081C0023203A026543677E
:101D0000704700BF99120000094A0346906870B1FD
:101D100013F1160F006E05D0A0F140029A4205D8CB
:101D2000834203D2814228BF0020704700207047C1
:101D3000A00C002008B514460A4A0B4B9060026FB5
:101D40001A600D4600F05EF8204685F309880021F0
:101D500063B681F31188BFF36F8F00220023FFF772
:101D60009BFA00BFA00C0020780A00200149102235
:101D70000A60704710ED00E072B6404080F31188B1
:101D8000BFF36F8FBFF34F8F30BF62B6BFF36F8F5C
:101D9000704700BF72B6494081F31188BFF34F8F7F
:101DA00020BF80F3118862B6704700BF044800234B
:101DB0002021C2180133302B82F80013F9D170476B
:101DC00000E100E001B5EFF30580A0F110004FEA5B
:101DD000C0000449014409C99847BDE801400249CF
:101DE000084700001CA4000061170000024B034AD2
:101DF0000348012100F040B800000420000000204A
:101E000074A60000026E054B403A1A60044A402155
:101E1000C3E901121846012100F038B87C0A0020FD
:101E200000000B15084AC2F898000B6823F01F0346
:101E3000034343F01003C2F89C308B6843F0010366
:101E4000C2F8A030704700BF00ED00E0044B05224F
:101E5000C3F89420BFF34F8FBFF36F8F704700BF5D
:101E600000ED00E0BFF35F8F024B0022C3F8942027
:101E7000704700BF00ED00E010B5034C012322784D
:101E800007F052F9207010BD1518002008B5094A56
:101E90000023127807F048F910F1160F03D0064B13
:101EA0000022072800DD08BDC3F89800C3F8A02071
:101EB0000130F6E71518002000ED00E0F0B5454DC3
:101EC0002C68082C85B000F28280FFF7CBFF002041
:101ED0000C2684420DD1404D404F2C706846FFF7D0
:101EE0001BFB00240646A6420AD1FFF7AFFF0020E5
:101EF0001CE0696806FB0011FFF794FF0130E8E77A
:101F0000009800EB04114FEA041CCB683B40B3F58A
:101F1000000F4AD00CD8B3F5001F30D0B3F5800FB6
:101F200038D0B3F5801F12D06FF0150005B0F0BDAA
:101F3000B3F1807F42D0B3F1007FF5D150F80C307F
:101F400088684A6807F0E0F840F4802009E050F81B
:101F50000C3088684A6807F0D7F840F0885040F4A1
:101F60003020039028780728CDE90123DCD801A987
:101F7000FFF758FF2B7801332B700134B3E750F88B
:101F80000C3088684A6807F0BFF840F0885040F489
:101F90000020E6E750F80C3088684A6807F0B4F88B
:101FA00040F0E06040F40030DBE750F80C30886827
:101FB0004A6807F0A9F840F08270D2E750F80C3078
:101FC00088684A6807F0A0F840F08870C9E74FF0C9
:101FD000FF30ABE780A60000151800200000F0FFDE
:101FE00008B5024B1B689847002008BD880A0020EE
:101FF000034B044A1860937843F0020393707047D0
:10200000880A00200C01002008B50649064821F086
:102010000701C1F1005202F5802206F049FF0020BD
:1020200008BD00BFC73600208C0A00200E4A0123DD
:10203000C2F840354FF080424FF08051C2F87835F9
:10204000D1F83001082808D1D1F83411052904D875
:102050000648415C09B1C2F838364FF0804301228E
:10206000C3F880250020704700E00140EEAF00007B
:1020700020B1034B800143F001031847704700BFB4
:1020800000A6000001F0DCBC084B70B5C31A0D4679
:1020900007499B10044659430648402207F093F82D
:1020A0002B4601462046BDE870401847AC0A002088
:1020B000B76DDBB668A3000073B50C4C0C4A402327
:1020C000041B00930D460B460A49A41061430646C3
:1020D000094807F0A5F8011E05DA30462B4602B084
:1020E000BDE87040184702B070BD00BFAC0A0020C8
:1020F0008D920000B76DDBB668A30000002270B5BA
:10210000012104461046FFF7AFFD0F4801F022FE03
:102110000E4B984215D101F02DFE26690C49304630
:1021200006F053FF00280BDB0125356424690849BC
:1021300004F11C0006F049FF002801DBE5640020E3
:1021400070BD6FF00400FBE7892100000000AD0BBB
:10215000A0A6000070B501460C2309484B43C418E3
:10216000D4E90E56403300221844A26307F018F851
:102170002DB132462B460348BDE87040184770BD6C
:10218000AC0A002068A3000010B1012804D07047F9
:10219000034B1B6C5B0701D1FFF7DCBF704700BF2F
:1021A000AC0A002008B54FF02003EFF3118183F350
:1021B0001288BFF36F8F124A136843F00200106059
:1021C000DA0708D481F31188BFF36F8F0120BDE8CF
:1021D000084001F0E1BD4FF08043D3F80C24D3F860
:1021E0000C34DB07EED5074806F0DAFF81F31188DF
:1021F000BFF36F8F0020BDE80840FFF7ABBF00BF03
:10220000FC0A0020EC0A00201FB500220123CDE9C2
:102210000223094ACDF800D06B46CDF804D007F070
:102220002EF8002805DB4FF480420023684603F0B7
:102230003DF905B05DF804FBAB92000010B54FF01E
:102240002003EFF3118483F31288BFF36F8F074AE3
:10225000136823F00201DB07116002D4012007F0AC
:102260001EFC84F31188BFF36F8F10BDFC0A0020A1
:102270002DE9F0413849BFF35B8F0746012251E851
:10228000003F41E800200028F9D1BFF35B8F33B94C
:10229000324933484B60CB608A6006F0A9FE7B1E52
:1022A000012B2BD8012F07D14FF08043D3F81C34DA
:1022B00003F00303012B21D007F0DEFD0546F8B93A
:1022C000284B1B78E3B14FF080430222C3F8082368
:1022D0000646DFF894804FF08044D4F81824D4F8F0
:1022E0001834D20316D503F00303012B01D0012FBC
:1022F00010D15DB386F31188BFF36F8FBDE8F08115
:102300004FF02003EFF3118683F31288BFF36F8F32
:102310000125DEE7ADB13046FFF73CFDD4F81835B6
:10232000002BDAD1D4F80421002AD6D0C4F8043125
:10233000D4F804310123C4F81835C8F88031A360FB
:10234000CBE70021212003F0B9FBE7E74FF0804302
:102350000222C3F80423D1E7A80A0020980A00202B
:10236000C80A0020301C002000E100E008B5074842
:1023700007F029FD38B10648FFF73AFE0448FEF79A
:102380006DFF002008BD6FF01200FBE7CCA300003A
:10239000952300000A2838B5074D044604D1AB68E0
:1023A0000D21DB6928469847AB680348DB69E1B239
:1023B0009847204638BD00BFCCA300004FF0200353
:1023C000EFF3118283F31288BFF36F8F094BD3F8B9
:1023D000001161B10021D3F80805C3F80011D3F84A
:1023E0000031C0B282F31188BFF36F8F70476FF076
:1023F0000A00F7E700D00040F0B5034610469C788D
:1024000093F803C04FF02005EFF3118285F3128893
:10241000BFF36F8F1F7893F801E0E41B04EA0C040C
:10242000A04288BFA0B23E180CEA06063D461E70C8
:1024300082F31188BFF36F8F0A188A4217D177454C
:102440000DD14FF02001EFF3118281F31288BFF319
:102450006F8F1978597082F31188BFF36F8F1B79D2
:10246000241AA34222BF064B01221A60F0BD5E1956
:102470000135767901F8016B05EA0C05DDE700BF4F
:1024800000D00040DB432DE9F04713F001050E4674
:10249000144604D02348FFF7AFFFBDE8F087A2B38E
:1024A0004FF02003EFF3118883F31288BFF36F8F8F
:1024B0000D20FFF7CBFB07460D20FFF7B3FB88F39A
:1024C0001188BFF36F8FDFF860A0DFF86080CAF873
:1024D0000051DAF800314FF400590123CAF80030F6
:1024E0002546C8F88091DAF8003183B1FFF766FF1E
:1024F000031EC8F88091F6DB013DADB27355002D87
:10250000F1D117B10D20FFF77FFB2046C5E74FF053
:102510002003EFF3118083F31288BFF36F8FFFF76F
:1025200039FCE0E7200B002000D0004000E100E093
:102530002DE9F041124F0D46144607F1350814B944
:102540002046BDE8F0814FF0FF334FF0FF323846B0
:1025500002F0ACFF224629464046FFF74DFF0646F3
:10256000384602F07FFF3EB94FF0FF324FF0FF33A5
:10257000044802F09BFFE6E7A41BA4B23544DEE763
:10258000000B0020100B002038B5184C012211461A
:10259000204607F092FC0122002104F1100007F010
:1025A0008CFC40F2074323874FF0706323620C23B7
:1025B00084F8243000250E4B84F83550E586D3F896
:1025C000042522F00102C3F804250121C3F80051BB
:1025D000D3F80021C3F804132A4619600D20FFF731
:1025E00043FB0D20FFF710FB284638BD000B0020F1
:1025F00000D0004010B5FFF7E1FE002820DB174BAC
:1026000093F8222093F8214093F82310141B31EA09
:102610000404C0B20DD193F8372093F8364093F8F4
:102620003810141B31EA04040BD10D4B01225A60FF
:102630000EE09C180132114084F8250083F8221026
:1026400010BD9C180132114084F83A0083F837100D
:102650000448BDE8104002F005BF00BF000B002099
:1026600000D00040100B0020F0B54068057B01F061
:102670001F0444EA4514056987B0002D64D0B2F503
:10268000001F00F1100506D12146284607F087FA01
:10269000002007B0F0BD01AE0027B2F5800F019712
:1026A000776039D1B3F1007F14BF052304238DF87F
:1026B00004300023CDE904630393836823FA01F116
:1026C00011F001011AD1B2F1A07F17D104F01F035C
:1026D000620903F5E0732AD0012A3BD11F4A52F860
:1026E0002330DB070AD40DF1030632462146284683
:1026F00001F030FE1A4B98421CD0029603AA2146E4
:10270000284601F0E9FC174B984220D101222146CE
:10271000284601F087FEBBE7B3F1C06F05D0B3F1E7
:10272000007F14BF01230223C1E70323BFE74FF05B
:10273000A042D4E73146284601F06EFE094B98428C
:10274000DBD06FF00B00A4E76FF08500A1E76FF01E
:1027500015009EE751F82330FFDE00BF0003005054
:102760000400AD0B0000AD0B38B545682B69B3B163
:102770001035284601F040FE044680B9014628463F
:1027800001F002FE084B98420BD108492246284628
:1027900001F0DAFD224605210620FFF765FA002048
:1027A00038BD6FF00400FBE70000AD0BB12700005F
:1027B000420970B5034602D0012A17D070BD0D4EF4
:1027C000326951680029F9D003F01F0301250C6814
:1027D0009D400029F2D08A682A4002D04B683046DA
:1027E00098472CB1236821461C46F2E7024EE7E7E2
:1027F0002346F8E790A300007CA300002DE9F043F6
:10280000466840F20635D006337B87B002EA0505FC
:1028100054BFC2F34010032001F01F07B5F5837FBA
:10282000144647EA43178DF8030044D00FD8062D0D
:1028300018D007D8B5B1022D3FD06FF0150007B002
:10284000BDE8F083B5F5807FF7D101250AE040F2BD
:102850000222954233D0B5F5407F32D0B5F5007FE6
:10286000EBD1022522032ED5726801238B40C2F8DA
:102870000835326992BB07F01F037F092BD0012F67
:1028800079D13F4A02EB830284F48033D2F80017F7
:10289000C3F30043C4F3404444EA430421F4E16138
:1028A00044EA800421F0070144EA05230B43C2F8FF
:1028B00000370020C3E70725D4E70425D2E7052524
:1028C000D0E70325CEE7630341BF012372688B4045
:1028D000C2F80C35CDE74FF0A042D3E710360DF12A
:1028E00002023946304601F035FD14F4403F80467F
:1028F0000CD13946304607F050F9224B9845D8D1D3
:102900009DF80210304601F081FDD2E701AB4FF097
:10291000000903AA39463046CDE90439CDE90199C9
:10292000CDF80C9001F0D8FB164B984285D114F4E9
:10293000003315D09DF803308DF80E3084F48034C8
:10294000C4F300444B4603AA394630468DF80C5078
:102950008DF80D4001F07AFC0A4B9842CDD06CE71F
:10296000CDE9043303AA0DF103033946304603933E
:1029700001F0B2FBF0E703F5E07352F82330FFDE1D
:10298000000300500000AD0B08B543681B68D3F886
:102990000805D3F80C1502F02BFA034B984214BF2C
:1029A0006FF00F00002008BD0000AD0B37B50446E6
:1029B000002201210320FFF757F963689D6901AAEE
:1029C0000021284606F00FFD002814DB019B2A6831
:1029D0001979186800F0C0F800280CDB60682369DA
:1029E000064A00F1080102F0A9F8054B984214BF0D
:1029F0006FF00F00002003B030BD00BF052A0000BB
:102A00000000AD0B0378012B08D0022B08D04BB986
:102A1000054B0B6201F1100002F024BD034BF8E7F7
:102A2000034BF6E7034BF4E70000AD0B0100AE0BE0
:102A30000200AE0B0100AD0B2DE9F04F8BB0054647
:102A40000C4691460193476806694FF0FF324FF0FC
:102A5000FF33304602F02AFD06F1100A002200235F
:102A6000504602F023FD384602F0ACF8DFF8C0B063
:102A70004FF00008C14501D800242EE0237A0393CB
:102A800013F008014DD112220DF11600029107F04A
:102A90000DFC039B60680199069003F00102206819
:102AA0008DF8151013F0020F02998DF8142008907C
:102AB0001DD109F1FF33434502D9237D5B0718D5AA
:102AC0007ABB202205A9384602F0A8F8584512D052
:102AD000184B984228D06FF00404384602F082F870
:102AE000304602F0BFFC20460BB0BDE8F08F0A462E
:102AF000E8E74022E6E74FF480420023504602F028
:102B0000D5FC30B1384602F06DF82846FFF73CFF9F
:102B1000E1E7336A5B4504F10C04DCD108F10108FC
:102B2000A8E76FF08504D8E76FF00F04D5E700BF82
:102B30000000AD0B0B00AD0B036803F01F025B0937
:102B4000026004D0012B034818BF002070474FF0EB
:102B5000A0407047000300502DE9F04FDFF8988146
:102B6000DFF8989185B01546824600EB810151450A
:102B700003D1002005B0BDE8F08FDAF80030D804AA
:102B8000C3F3432203F07F0400F1AF807F2C4FEAB0
:102B9000134318F8027008BF4FF0FF34222B00F2E5
:102BA000A780DFE803F0122228432B3243A5A5A516
:102BB000A54672A5A5A5A5A5A5A5A5A575808386ED
:102BC000A5A5A5899194979A9D00C5F80C45601C10
:102BD00018D003A80394FFF7AFFF039B012606FA62
:102BE00003F3C0F80835B3462CE0C5F81445631C60
:102BF00008D00026F7E7C5F80845E8E7621CC5F8E5
:102C0000084570D10AF1040AB1E7631CC5F80C4508
:102C1000F8D0012603A80394FFF78EFF039B4FF023
:102C2000010B0BFA03F3C0F80C350BE0C5F81045A7
:102C3000DDE7C5F80845002FD9D1671CE2D0002692
:102C4000B3460627DAF80030019303F40052002A55
:102C500003A81CBF4FF0000B01260394FFF76CFF85
:102C6000039A019B00EB8200C3F3C114D0F8002744
:102C70003B0243EA840343EA0B0302EA09021343DB
:102C800043EA4603C0F80037BCE7C5F80C45D2E775
:102C9000C5F86045661CDAF80030B3D0C3F3803362
:102CA000002BB6D095E7C5F86445F3E7C5F868454D
:102CB000F0E7C5F86C45EDE7C5F82445621CA1D0E6
:102CC0004FF0000B0126BDE7C5F828457FE7C5F8A2
:102CD0003045F3E7C5F83445F0E7C5F83845EDE78A
:102CE000C5F83C45EAE7002694E76FF0150041E798
:102CF0006FF085003EE700BF4CB00000F0F8FCFF2D
:102D0000036803F01F025B09026004D0012B034833
:102D100018BF002070474FF0A040704700030050DC
:102D200002480021C2E90001002070470024F4009D
:102D3000F7B544680569A66B01AA0021304606F084
:102D400052FB00283FDB019B326819791868FFF7B6
:102D500003FF002837DB00210E460127236801F519
:102D6000AC7253F82230002B0EDB01A80193FFF761
:102D7000C7FF019AD0F80435D34013F0010318BF00
:102D800007FA01F33343DEB201310429E6D10235FB
:102D90000023012101FA03F232420CBF012200227A
:102DA0000133D203042B25F8022FF3D100231A4656
:102DB00004F10801204601F005FD044B984214BFC0
:102DC0006FF00F00002003B0F0BD00BF0000AD0B9E
:102DD000F7B51D4643680469D3F800C006464FF0B6
:102DE0002003EFF3118783F31288BFF36F8FE3683B
:102DF000D86838B187F31188BFF36F8F6FF00F0079
:102E000003B0F0BDDA60E36899604FF48003CCF85A
:102E1000043301F06043B3F1005FE36811D119613D
:102E2000E3685A612146304606F0FDFC87F31188BD
:102E3000BFF36F8FE37A012B01D16B1C06D1002009
:102E4000DEE7D861204606F067FCEBE70B480C4A4A
:102E5000E46825EAE5754FF4004600210023C5FB30
:102E60000601FDF7ABFB203402460B460020002193
:102E7000CDE90001204603F00DF8E0E73F420F00E6
:102E800040420F002DE9F7430746002201210220AE
:102E9000FEF7EAFE0220FEF7B7FE7E683D69346861
:102EA0004FF00008C4F800852F60D6F80C9001AAF6
:102EB0004146484606F097FA002839DB019BD9F8CD
:102EC000002019791868FFF747FE002830DB6B7A7D
:102ED000D7F810C0012B03D0032B27D14FF01008D7
:102EE000AB7A032B22D1E97A09B101291ED12A7AC2
:102EF00012B1022A1AD10E226B687868B3F5164F08
:102F0000006800F0E88034D8B3F5165F00F0E68082
:102F10001AD8B3F5966F00F0E3800CD8B3F5967F1E
:102F200000F0E180B3F5167F00F0E0806FF08500DF
:102F300003B0BDE8F083B3F5166F00F0DA80B3F5A7
:102F4000965FF3D1804B45E0B3F5E14F00F0D480BC
:102F500008D8B3F5615F00F0D180B3F5964FE5D1A5
:102F60007A4B37E047F6122E7345DFD14FF400035A
:102F700030E0B3F5613F00F0C38015D8B3F5963F5C
:102F800000F0C1800AD84DF6C02E734500F0BD8018
:102F9000B3F5614FCAD14FF46B031BE0B3F5E13FCA
:102FA000C4D14FF0EB7315E0B3F5612F00F0B080A2
:102FB0000AD8DFF89CE1734500F0AD80B3F5E12F4E
:102FC000B4D14FF0E86305E0DFF888E17345ADD197
:102FD0004FF08053C0F824357B6841EA08011B6834
:102FE0000A43C3F86C25D5E901010CF1040383E819
:102FF00003007368990713D505F11C0001F03EFB2F
:10300000554B984240F09C80287F04F10C0204F557
:10301000907106F03AFD2B7F0120984000F032FEBF
:10302000EB68002B7AD07B68D7F810801B680422ED
:10303000C3F80423D8F80C100122C1F8C020474976
:10304000C3F804130821C3F80015D3F84C11A1B13B
:103050005A60D3F844211AB9D3F82421002AF8D0B1
:103060000022C3F84C21D3F84C11C3F81021D3F837
:103070001011C3F84421D3F84431D8F80C00384972
:103080000022803007F048F8D8F80C30C3F8B4803C
:10309000D8F80C0033490022203007F03DF8D8F86A
:1030A0000C30C3F8548073689A075CBF4FF4807388
:1030B000C4F804337368DB0644BF4FF48003C4F8DC
:1030C00004336B69C4F8443500200123C4F8480573
:1030D000A360E3602CE74FF41D037BE7224B79E705
:1030E0004FF49E2376E74FF4A03373E74FF41C337D
:1030F00070E74FF41D236DE71C4B6BE71C4B69E732
:103100004FF06C7366E71B4B64E74FF4650361E7B0
:103110004FF070635EE74FF080635BE70823C4F80D
:103120000035337A002BBED1C4F81031D4F81031F9
:10313000AB69C4F834350123C4F838352360B2E7ED
:103140006FF00400F4E600BF00B0130000A04E00D2
:1031500090D0030040420F000000AD0B10020A00A7
:1031600073990000479A00000050270000C07500C6
:1031700000F03A0000903A012DE9F041044605695B
:103180000E4606F079FEB0B92A4B1B789BB1642736
:10319000606806F038FB002838D1012006F073FC87
:1031A000013FF5D10021212002F088FCEFE781F3F7
:1031B0001188BFF36F8F4FF02003EFF3118183F37A
:1031C0001288BFF36F8FD4F8048040460F4606F094
:1031D0001AFB0028EBD0EB685BB1DA684AB1D3F890
:1031E000BC20002A05DAD8F80020D2F84C25C3F814
:1031F000BC206B691E7069690122204606F0A9F99E
:1032000087F31188BFF36F8FBDE8F0814FF0200383
:10321000EFF3118183F31288BFF36F8F60680F465D
:1032200006F0F1FA0028E4D181F31188BFF36F8F23
:10323000B8E700BF301C00202DE9F04143681D684D
:103240000369D5F8081188B0044669B10022C5F8B1
:103250000821D5F80821DA68D2F8B8300133C2F86D
:10326000B83008B0BDE8F081D5F8243123B3C5F8F3
:103270002411D5F8243143681B68D3F88064C3F85F
:103280008064142203A807F011F80623F2078DF8D2
:103290000C3000F10C81B30700F10B81770700F1CE
:1032A0000A8106F00806204603A98DF8106006F092
:1032B00078F9204606F00BFAD5F81031002B33D000
:1032C000D5F80433D8062FD54FF00008C5F8108183
:1032D0002669D5F8103163681F68F368012283F806
:1032E000CE20F068803006F023FFF268D7F83C1556
:1032F00092F8C93082F8C980F268106E1B1A0B442C
:10330000106F23EAE37108444345106702DD20464D
:1033100006F04EF9F16891F8CA3003F0FF02002B75
:1033200040F0CB8081F8CE20D5F84C3183B3D5F86E
:1033300010616EBBC5F84C6114222769D5F84C3179
:10334000314603A806F0B2FF032303A920468DF8F7
:103350000C3006F026F9FB685A6F511C18D0DA675A
:10336000FF688F49B86F8F4A20EAE07C8E464FF4A1
:1033700000403146CCFB00E100237046FDF71EF90A
:1033800002460B46CDE9000107F1800002F082FD04
:10339000D5F8443163B3D5F810614EBBC5F844612C
:1033A0002769D5F84431F968D4F8048058312046AB
:1033B00006F017F9F9682046643106F012F9FB6847
:1033C00083F8CA60FB6893F8CB2032B183F8CB60F6
:1033D00060683246314606F0B7F9D8F80430D806AE
:1033E00003D50221204606F0E4F9204606F011F943
:1033F000D5F82031DBB1D5F80433D90517D563688A
:103400001B684FF02001EFF3118281F31288BFF3A4
:103410006F8FD3F8201131B10021C3F82011D3F8F8
:1034200020110121D96082F31188BFF36F8FD5F885
:103430005831002B3FF415AFD5F804335A027FF50D
:1034400010AF63682569D3E90073DB0666D4EB68C7
:103450009B68002B3FF405AF4FF02003EFF3118280
:1034600083F31288BFF36F8FEB68D3F8BC10002989
:10347000ACBFD3F8BC60D7F84C6582F31188BFF3BA
:103480006F8FEB6893F8CD20002A54D04FF02003C3
:10349000EFF3118683F31288BFF36F8F294620461E
:1034A00006F0C1F986F31188BFF36F8FD9E60126C4
:1034B000F9E60226F7E60426F5E65831204606F03E
:1034C00090F84FF02003EFF3118183F31288BFF3DC
:1034D0006F8FF3685A6EF2B19A65F3689A6EDA6587
:1034E000F26800235366F2689366F2681366D7F8B1
:1034F0004C310BB901233B60D7F8003223F0200395
:10350000C7F8003281F31188BFF36F8FF368002290
:1035100083F8CE2008E701237B60F3E74FF48003B4
:10352000C7F808330121204606F043F9EB68DB6851
:10353000002B8CD195E699681A6991420CD0596993
:10354000DA69B142324428D1DA61284606F0E4F85B
:1035500000289BD1EB68DE69E868203006F0E8FDC2
:103560001422002103A806F0A1FEEB689A68CDE9B9
:103570000426DB689E421CBF01238DF80C304FF4FB
:103580008003C7F80833EA6800239360EA6803A958
:10359000D360204606F005F863E61646DCE700BF78
:1035A0003F420F0040420F0070B5012383400E4A96
:1035B000BFF35B8FDC4352E8001F01EA040542E8D9
:1035C0000056002EF7D1BFF35B8F4FF4803282405C
:1035D0000648C0F80823BFF35F8FBFF36F8F0B421D
:1035E00014BF0120002070BD800B0020001001409E
:1035F00070B40E49D1E90034D01AC31844F1000464
:1036000022F07F46C1E90034A6F50013B3F5400F60
:1036100009D2074B1B681A0A1B069C19054B42F17D
:103620000005C3E9004570BC02F03EBBF803002072
:10363000840B00200004002011B3BFF35B8F012333
:10364000104A834052E800CF4CEA030C42E800C124
:103650000029F7D1BFF35B8F0B4A4FF480338340CF
:10366000C2F80433094BBFF35B8F1B68BFF35B8F5A
:10367000C340DB0742BF064B4FF40032C3F80021C2
:10368000704700BF800B0020001001407C0B002021
:1036900000E100E00D4B1868010A0006BFF35F8FE0
:1036A0000B4BD3F80435181841F10001B3F5801F16
:1036B0000AD2084BD3E90023904271EB030303D2F3
:1036C00010F1807041F10001704700BF840B0020B1
:1036D00000100140000400202DE9F04F85B016468F
:1036E0001F469DF840A00446FFF75EFF0190FFF7DC
:1036F000D1FFB04271EB070354D23E4B301A67EB57
:103700000101984271F100014FD23B4B03EB0413CE
:10371000D3E902239F4208BF96425ED037494FF457
:10372000803804F1500508FA04F8AD00C1F8488368
:103730002046ADB206F08BF926F07F4B05F18045AF
:1037400004F5A87305F58835DC464FF003090293AC
:10375000029A2CF07F4341F82230C1F84483D1F81B
:103760000435274A6FF00200C01A604420F07F4001
:10377000904232D9286868B1D1F804350393A3EB9D
:103780000B0020F07F40B0F5000F26D9204606F050
:103790005EF9039BBAF1000F07D109EB030C09F1A5
:1037A0000109D5E7BAF1000F09D06FF015052046E1
:1037B0000199FFF741FF284605B0BDE8F08F0123CE
:1037C000104ABFF35B8FA34052E8000F184342E852
:1037D00000010029F8D1BFF35B8F07490E98230140
:1037E00001EB0412C8500F9B5360C2E90267002529
:1037F000DDE700BF01008000E80300200010014069
:10380000FDFF7F007C0B00207FB51C4C1C4BC4F8D7
:103810000833C4F848331B4B00254FF0FF304FF0FE
:10382000FF31C4F80855C3E902014FF48033C4F8EE
:103830000433154B02264FF400320121C4F804630F
:103840001120C3F880212A46FEF70EFA1120FEF758
:10385000DBF90E4A0123A360236013600C4B0D4A71
:103860000093CDE9015500232846FFF735FF304688
:10387000FEF7FEFC284604B070BD00BF00100140FA
:1038800003000F00E803002000E100E0800B0020AF
:10389000F1350000FFFF7F002DE9F7432F4CD4F8EE
:1038A000043399070BD5D4F8043143B12C4A0023D3
:1038B000C4F80431D4F80431136801331360D4F828
:1038C0000433DA032AD5BFF35B8F264B53E8002F6E
:1038D00022F0010143E800100028F7D1BFF35B8F0D
:1038E000D30702D4D4F84031C3B10025C4F8405105
:1038F000D4F84031FFF7CEFE4FF02003EFF31182F2
:1039000083F31288BFF36F8F174BD3E90267B0427E
:10391000B94106D282F31188BFF36F8F03B0BDE8BF
:10392000F0834FF0FF384FF0FF39C3E90289D3E944
:1039300000101D604FF48033C4F84833C4F8405180
:10394000D4F8403182F31188BFF36F8F0029E5D09E
:10395000009032463B4628468847DFE7001001408A
:10396000840B00207C0B0020E803002030B5431CB2
:10397000124C85B005D08442A8BF0446012CB8BFC4
:103980000124FFF787FE0E4B0C4DD3E90013401ABC
:10399000B0F5000F10D22218AA4228BF2A465218AA
:1039A0004FF0000007490091CDE9010043F1000309
:1039B000FFF792FE05B030BD2A46F0E7FFFF7F001B
:1039C000F8030020F135000008B5FFF763FE024B55
:1039D0001B68C01A08BD00BFF803002010B5084CD2
:1039E000012363601120FEF71DF9064BC4F808336C
:1039F000C4F84833044B4FF40032C3F8802110BDA3
:103A00000010014003000F0000E100E04FF0805380
:103A1000D3F83021082A06D1D3F83431052B02D847
:103A2000024AD05C70470020704700BF82B000009F
:103A3000024AD2F80034002BFBD0704700E001406E
:103A400010B54FF08053D3F83021082A4ED14FF0F3
:103A500080420021C2F80C11C2F81011C2F83815CA
:103A600002F54042D3F80414C2F82015D3F8081424
:103A7000C2F82415D3F80C14C2F82815D3F8101482
:103A8000C2F82C15D3F81414C2F83015D3F8181452
:103A9000C2F83415D3F81C14C2F84015D3F820141A
:103AA000C2F84415D3F82414C2F84815D3F82814E2
:103AB000C2F84C15D3F82C14C2F85015D3F83014B2
:103AC000C2F85415D3F83414C2F86015D3F838147A
:103AD000C2F86415D3F83C14C2F86815D3F8401442
:103AE000C2F86C15D3F84434C2F87035FFF78EFF76
:103AF00018B13A4B3A4AC3F88C26FFF787FF18B142
:103B0000384BFB22C3F81825FFF780FF70B14FF048
:103B100080414FF08053D1F8E42ED3F8583222F090
:103B20000F0203F00F031343C1F8E43EFFF76EFFEB
:103B300020B12D4B4FF40072C3F840264FF0805354
:103B4000D3F83031082B1AD14FF08043D3F800243A
:103B5000D20744BF6FF00102C3F800244FF0805336
:103B6000D3F83431052B02D8204AD35C3BB14FF057
:103B70001023D3F808224FF08043C3F858254FF0A4
:103B80001023D3F80022002A03DBD3F80432002BE1
:103B900022DA174901234FF01020C1F8043512240E
:103BA000FFF746FFC0F80042FFF742FFC0F80442AB
:103BB000FFF73EFF0023C1F80435FFF739FFBFF3DD
:103BC0004F8F0C490C4BCA6802F4E0621343CB6080
:103BD000BFF34F8F00BFFDE710BD00BF0050004096
:103BE0004881030000F00040009002407CB00000DB
:103BF00000E0014000ED00E00400FA0530B5046883
:103C0000CCB1BFF35B8FB4FA84F3C3F11F03DBB213
:103C100001229A4024EA020250E8005FA54204D142
:103C200040E8002CBCF1000FF6D1BFF35B8FE6D16A
:103C300002480B7030BD0248FCE700BF0000AD0B2E
:103C40000200AD0B10B50368CB40DB0714D4012391
:103C50008B400268BFF35B8F43EA020150E8004FDC
:103C6000944204D140E8001CBCF1000FF6D1BFF330
:103C70005B8FEED1014810BD0148FCE70000AD0BA1
:103C80000400AD0B014BC3F80405704700F0014080
:103C9000F7B5044618B1012823D003B0F0BD4FF0AA
:103CA00080430222C3F808230122DA60C3F804012A
:103CB000D3F80431064601238DF8073042F210751F
:103CC0004FF08047D4B1012CE7D1D7F80C3403F47E
:103CD0008033AEBB83B3012005F0D5FE013DF4D1A6
:103CE0002AE04FF080430022C3F808035860C3F86D
:103CF0000021D3F800310DF10706DCE7D7F81834BE
:103D000003F480333EB9002BC7D0012005F0BBFE81
:103D1000013DF3D1C1E7D7F8182402F00302326065
:103D2000002BBAD09DF80700012803D105F0ABFEA7
:103D3000013DC7D1012CB0D1054B00225A71ACE72F
:103D4000D7F80C2402F001023270002BEAD1F3E71D
:103D5000880B0020044B1A7922B9012218609A803E
:103D60000248704702487047880B00200000AD0BE6
:103D70000C00AD0B08B5074B1B682BB10020FDF7FD
:103D800065FF08B9FDF740FF4FF080430022C3F8FC
:103D9000182508BD880B002010B510B1012843D0AC
:103DA00010BD4FF08043D3F81814D3F81824C8037B
:103DB00021D502F00303012B04D013B10020FFF73B
:103DC00067FF00234FF080420220C2F81835082216
:103DD0004FF4827303F180430021196002F18042A5
:103DE0001C6801241460154A12680AB34FF080431E
:103DF000C3F80403D4E7D3F81424D107E1D5D3F8EA
:103E00001C249207DAD40D4A12681AB10222C3F8B0
:103E10000423C5E7D3F80421002AFBD00022C3F80D
:103E20000421D3F80431BBE700224FF48073D1E7BB
:103E30001A68002AFCD019601B68B1E7880B0020C3
:103E400010B54FF08043D3F800216AB10022C3F8C7
:103E50000021D3F800210122C3F80823114B58791F
:103E600010B95A711B6898474FF08043D3F804216A
:103E700072B10022C3F80421D3F80421D3F8182426
:103E8000D3F81824920704D10122C3F818259A60A8
:103E900010BD0222C3F80823024BBDE810401B6886
:103EA00001201847880B0020036803F01F025B09FC
:103EB000026004D0012B034818BF002070474FF068
:103EC000A040704700030050034A430900F01F0060
:103ED000D35C1844C0B2704788B0000070B5054686
:103EE000FFF7F2FF0C4C08300E4634F81030DA05BC
:103EF00008D5C3F3432304EBC302284654F83330F8
:103F000052689847A3682BB1E26831462846BDE85D
:103F10007040184770BD00BF6401002008B5FFF76E
:103F2000D3FF034B083033F81000400B08BD00BF2F
:103F30006401002008B5FFF7C7FF034B083033F8D2
:103F40001000C0F3400008BD6401002008B5FFF771
:103F5000BBFF034B083033F81000C0F3401008BD1E
:103F600064010020034611F0010010B5CCB20DD160
:103F7000A207C4F3400012D5094AD2F820055860C0
:103F8000C2F82005003818BF012008E04FF0A0411A
:103F9000D1F820251A60C1F82025002AE8D010BDEC
:103FA0000003005010B5FFF78FFF124A083032F8B7
:103FB0001030D9051CD5C3F3432123F4F85322F85C
:103FC000103002F10E04002034F8023F13F4807F19
:103FD00003D0C3F3432399420AD001303028F3D1F0
:103FE000002342F831300448BDE81040FFF72ABEF4
:103FF00010BD00BF64010020DC010020F0B50546C3
:1040000000200446012607468C420BD1114BD3F801
:104010007C2132B10022C3F87C21D3F87C3140F0FE
:104020000040F0BDE3B29B0003F580729B0806FAE6
:1040300003F31D420BD002F1804202F5C042D2F8D8
:1040400000C0BCF1000F02D01760126818430134A1
:10405000DAE700BF00600040F7B506460846FFF704
:1040600033FF194F00F108050C4637F81530DB0710
:1040700027D5304605F06DFD2046FFF767FF40B1BC
:104080002046FFF74BFF316800F5A270002341F88E
:1040900020302046FFF786FF002301A827F81530BF
:1040A0000194FFF701FF019B00EB8300074BD0F861
:1040B0000027134043F00203C0F80037044803B060
:1040C000F0BD0448FBE700BF64010020F0F8FCFFEE
:1040D0000000AD0B0400AD0B2DE9FF4116468046F4
:1040E0000846FFF7F1FE0D463168044609B328463D
:1040F000FFF720FF18B12846FFF728FF10BB002369
:10410000CDE900338DF80E308DF80F300DF10F0230
:104110000B4628460DF10E0105F0C3FC474A04F199
:10412000080132F8113023F0020343F0010322F8B2
:104130001130736863B328461F785968FFF7FAFE99
:1041400010B1D1B13E4826E03C4A04F1080032F8F3
:10415000103023F02003DB04DB0C22F8103061B1B7
:10416000032FEFD87168496891F800C0D8F80010A3
:10417000A7B90CF5A27C41F82C70304A04F1080173
:1041800032F8113023F01C0343EA870322F8113080
:10419000B3684BBB2B4804B0BDE8F08101EB8C0148
:1041A00043EA4C33D1F810E52EF0030EC1F810E5C8
:1041B000D8F8001001EB8C0E43F02003DEF8101548
:1041C00022F8103021F44F3121F44071CEF810154F
:1041D0002902DEF8108501F47C5141EA074141EAE9
:1041E0000801CEF81015C8E7D3E900672846FFF7A5
:1041F000D9FE002ECED0114DD5E90023964203D131
:104200009F4201D1002209E00F480DF10F01FFF795
:10421000F5FC0C4B9842BED19DF80F2045F832605A
:1042200005EBC20308345F6035F8143043EA4223DB
:1042300043F4807325F81430ACE700BF640100201C
:104240000400AD0B0000AD0BDC0100202DE9F043B4
:104250000C4685B08046204611461E46FFF734FEC8
:10426000054629B32046FFF765FE18B92046FFF73B
:104270006DFE18BB314F05F1080937F8193013F0FE
:104280001C0F02D04B78012B18D001238DF80F3072
:104290000023CDE900134A1C8B1C20460DF10F01B1
:1042A00005F0FFFB37F8193043F0030327F8193006
:1042B000002E41D02046FFF73DFE18B9204805B03A
:1042C000BDE8F08396F800C0D8F800301B4F0CF51D
:1042D000A272002143F8221005F1080237F81210EB
:1042E00021F02001C904C90C27F8121075781DB3FC
:1042F000D8F80000B67800EB8C002D04D0F810350B
:1043000023F4991323F4F853C0F81035230203F46F
:104310007C5305F440353605D0F810E52B4306F400
:10432000801641EA4C31334341F0200143EA0E0349
:1043300027F81210C0F810350248C0E764010020C9
:104340000400AD0B0000AD0B014BC3E90212704736
:104350006401002010B508461446FFF7F7FD50B180
:104360000846FFF7B1FD054B083033F8103004481C
:104370005B0B237010BD0348FCE700BF6401002005
:104380000000AD0B0400AD0B70B5184E96F88040E0
:1043900005464CBB2146602206F1100005F086FF61
:1043A0002D68306F2146884212D10023C5F87C3138
:1043B00045F30730D5F87C31FDF726FC4FF000437C
:1043C000C5F804330A48012386F88030B36770BD0E
:1043D000CBB29B0003F580727C2B08BFAC5001F17F
:1043E000010108BFAB58DEE70248F0E76401002096
:1043F0000000AD0B0C00AD0B034B93F880000038B0
:1044000018BF0120704700BF640100200148FFF77A
:1044100019BC00BFD80100200148FFF7EFBB00BF67
:10442000D801002073B5054608460C461646FFF72E
:104430008DFD00B30846FFF77DFD0146D8B9204643
:10444000FFF76CFD04B2A40004F5807203462868EF
:104450008150296882582144D1F8102542F0010288
:10446000C1F810252EB12968012202FA03F3C1F820
:10447000043302B070BD2046FFF726FD0F4B083015
:1044800033F81030C3F38203042B12D0052B12D063
:1044900001A80194FFF708FD019AD0F81035D34028
:1044A00003F00103991C204602B0BDE8704005F0FE
:1044B00041BB0321F7E70221F5E700BF64010020BB
:1044C0002DE9F04F694BDFF8A881D3F80403D8F841
:1044D0007010C0B289B040F00040FFF78FFD051E9C
:1044E0002FDAC24600235AF87C1F06A8CDE906330E
:1044F000FFF738FD5F4B01930DF118094FF0000BEA
:10450000019A12F8013B0192DA0803F007031AF846
:10451000022022FA03F3DA071CD409F10409BBF1E3
:10452000000F14D0D8F870104FF00040FFF766FD70
:10453000D8F87C1006A8FFF715FD0028DAD125F081
:1045400000450124002D79D109B0BDE8F08F4FF06E
:10455000010BD5E7484B5B440293D9F800100029C2
:10456000DBD0029B91FAA1F11C78B1FA81F141EA0A
:1045700044142046FFF7A8FC0830059438F8107062
:10458000C808BB0819F80020039301F007010123B4
:1045900003FA01F122EA010209F8002005A8FFF759
:1045A00083FC059A039B02F5E072C7F3820650F87C
:1045B00022205B073746C2F3014224D52046394604
:1045C000D6B2FFF78BFC05A80594FFF76DFC059BA1
:1045D00003F5E07350F82330C3F301439E4207D143
:1045E0000021204605F0A6FA3146204605F0A2FA41
:1045F00005A80594FFF758FC059B012202FA03F376
:10460000C0F82035A9E7022A0CD10321204605F085
:1046100091FA06F00503012BEAD139462046FFF74F
:104620005DFCE5E702212046039205F083FA032EA4
:10463000F3D0039A032ADBD1022EEDE795FAA5F316
:10464000B3FA83F304FA03F29B0003F1804303F50A
:10465000C04325EA0205D3F81005D3F81015C0F3BE
:104660000520C1F30141FFF739FC6BE70060004012
:104670006401002098B0000098B000000146014895
:10468000FFF7BCBAE8010020036803F01F025B09D2
:10469000026004D0012B034818BF002070474FF080
:1046A000A04070470003005070B505790A4C1423F0
:1046B0006B43E618E35833B90068022105F0A6FA07
:1046C00008B101233372142303FB0544207A023816
:1046D00018BF012070BD00BF900B00202DE9F347EB
:1046E0000B7F04466BBBDFF8D8900D1F01F110065D
:1046F00001F10C08012755F804AFBAF1FF3F1CD0B7
:104700003378CDF804A001A8002B50D0FFF7BCFFF0
:10471000019B07FA03F3C0F8083501A8CDF804A0FF
:10472000FFF7B2FF019B00EB8300D0F8003703EAEC
:10473000090343F00303C0F80037A84506F101065A
:10474000D9D191F81DC00D8B4F7D8E7D8A7EC87E9C
:104750002368BCF1000F0BD1D1E9008ED1E902C171
:10476000C3F86085C3F864E5C3F868C5C3F86C1581
:1047700042EA0022C3F80C75C3F80465C3F8085573
:10478000C3F8102520680023C0F81031D0F810219C
:10479000C0F80831D0F80821C0F80C31D0F80C313D
:1047A00040F3073002B0BDE8F047FDF72DBAFFF740
:1047B0006BFF019B07FA03F3C0F80C35ADE700BFB0
:1047C000F0F8FCFF2DE9F04190F804800D4C142620
:1047D00006FB08F6A71997F808C0BCF1000F0ED128
:1047E000A2517B6019B10B7F3B74FFF777FF142355
:1047F00003FB0844044801232372BDE8F081034809
:10480000FBE700BF900B00200000AD0B0C00AD0BD0
:1048100070B40C460179266815461A461A4B01EB0E
:10482000810103EB81010368C3F82065A688C3F802
:104830002465A668C3F82865E668C3F82C65036894
:104840002668C3F84065A688C3F84465A668C3F81F
:104850004865E468C3F84C45046805F0010303EBC0
:104860005505C4F81455D4070CD412F0020403D033
:10487000002B14BF082404240568C5F8004270BC4E
:1048800005F08FB91024F7E7900B002038B50368C6
:1048900005790022C3F800220368012204465A6009
:1048A00071B12046FFF700FF0028FAD023680022EC
:1048B000C3F80025054B142202FB053301221A72AE
:1048C0002046BDE83840FFF7EFBE00BF900B002048
:1048D00030B500F01F04400911D0012812D10C4856
:1048E00000EB84001B02D0F800570A4C43EA820216
:1048F0002C4042EA41012143C0F8001730BD4FF07F
:10490000A040EDE704F5E074002353F82430FFDE07
:1049100000030050F0F8FCFFCB7B10B433B9D1E9B1
:1049200000420368C3F80845C3F80C2503688A6889
:10493000C3F8242503793C225343054AD3582BB1AD
:10494000006810BC40F30730FDF75EB910BC70473B
:10495000B80B002013B53B4B01930023C0F8043182
:10496000D0F80421C0F82431D0F82421C0F81C313B
:10497000D0F81C21C0F80831D0F80821C0F8003266
:104980004B6381F82F300123036291F82D209A4266
:1049900018BF83604B6B8A6A934204460ED24A6A00
:1049A000D35CC0F81C350B6803B340F286238B60E0
:1049B0008B682548C4F8043302B010BD91F82C3040
:1049C00013B10123C361EEE70B6A13F0400F4FF000
:1049D000010316BFC361436181F82D30E3E7204630
:1049E00005F040F928B1019B013B0193019B002B8D
:1049F000F5DC91F82F305BB91348019B002BDBDC11
:104A00000023C4F8003505231048C4F80035D3E767
:104A1000D4F8C434C4F8C4348BB10D4A0B4813F035
:104A2000010F18BF104613F0020F02F1010218BF68
:104A3000104613F0040F074B18BF1846DDE7034874
:104A4000DBE700BFA08601000000AD0B0100AD0B4D
:104A50000000AE0B0200AE0B13B5334B01930023E5
:104A6000C0F80431D0F80421C0F82431D0F8242152
:104A7000C0F81C31D0F81C21C0F80831D0F808214A
:104A80004B6381F82F308B6A012B044617D10B6AD8
:104A90005B0614D40223C4F800320123236291F888
:104AA0002D20022A18BF23600B688BB140F28623A9
:104AB0008B608B681D48C4F8043302B010BD01231D
:104AC000E9E7204605F0CEF828B1019B013B0193B0
:104AD000019B002BF5DC91F82F305BB91348019B4B
:104AE000002BEADC0023C4F8003505231048C4F885
:104AF0000035E2E7D4F8C434C4F8C4348BB10D4AAD
:104B00000B4813F0010F18BF104613F0020F02F10B
:104B1000010218BF104613F0040F074B18BF1846C8
:104B2000DDE70348DBE700BFA08601000000AD0B16
:104B30000100AD0B0000AE0B0200AE0B2DE9F843F7
:104B400090F804901C4E07463C2000FB09F03518F5
:104B50000C4695F82E1061BBA96032506B6085F849
:104B60002D1085F8311085F83010CCB1637B85F8B5
:104B7000383094F80E8085F83980B8F1000F0BD1E9
:104B80002068062303224146FFF7A2FE6068062341
:104B900003224146FFF79CFE21463846FFF7BCFE44
:104BA0003C2303FB09660548012386F82E30BDE847
:104BB000F8830348FBE700BFB80B00200000AD0BF3
:104BC0000C00AD0B036802790521C3F80015044BF6
:104BD0003C2101FB0233022283F82E20704700BFE4
:104BE000B80B002003680B4A0179C3F80823D3F8F7
:104BF000002222F00302C3F800220022C3F800259D
:104C0000054B3C2000FB0133012183F82E1083F873
:104C10003020704786420400B80B00202DE9F04791
:104C2000314F0479D0F800903C2303FB04730D4608
:104C300093F82D30012B944604D10B78012B06D12B
:104C40002A4811E0022B02D10B78012BF8D13C2627
:104C5000274BC9F8083306FB047696F830302BB1A1
:104C6000B3682448C9F80433BDE8F0878CF0040326
:104C7000C3F3800386F83030C6F820C0A846B8E8F1
:104C80000F0006F10C0EAEE80F00D8F80030CEF899
:104C900000306B68B362EB6873626B78C9F8883573
:104CA0002B78C4EB041A012B07EB8A0A17D09BB9A7
:104CB000CCF3401C3C2303FB04735146484683F865
:104CC0002CC0FFF747FE3C235C433A193B59002BAD
:104CD000CAD182F83030C7E74FF0010CEAE75146FD
:104CE0004846FFF7B9FEEEE7B80B00200500AD0B14
:104CF000864204000B00AD0BF0B5324C324887B051
:104D0000214604F0AFFF002859D194F82F70FFB965
:104D1000227B931E012B1BD8606AA369984217D18E
:104D2000E36963626369A362236A274884F82D708C
:104D3000C3F34013032A84F82C3004D107B0BDE834
:104D4000F040FFF707BE07B0BDE8F040FFF784BEB4
:104D50001E4E0FCE01AD0FC533682B6047B31A4A04
:104D6000D2F8C434C2F8C43413F0020106D00123CF
:104D70008DF80030002384F8303007E013F004028F
:104D800009D002238DF8003084F83010D4E90031C6
:104D90006846984713E013F0010305D003238DF80C
:104DA000003084F83020F1E704228DF80020E2E79B
:104DB000236A8DF800705B0784F83070E6D507B081
:104DC000F0BD00BFB80B002000300040C40B002035
:104DD000036803F01F025B09026004D0012B034843
:104DE00018BF002070474FF0A040704700030050EC
:104DF000F7B5064604F0CEFF084604F0CBFF01A845
:104E00000196FFF7E5FF019B2E4D00EB83000C465A
:104E1000D0F80037019440F20D612B400B43C0F8ED
:104E2000003701A8FFF7D4FF019B00EB83000127A7
:104E3000D0F800372B400B43C0F80037042004F0B3
:104E400022FE092501A80194FFF7C2FF019AD0F8BC
:104E50001035D340DB0715D401A80196FFF7B8FF42
:104E6000019B07FA03F3C0F80C35042004F00BFE95
:104E7000304604F08FFF013D042004F004FE15F0DD
:104E8000FF05DFD101A80194FFF7A2FF019A0123DA
:104E90009340C0F80C35042004F0F5FD204604F0E2
:104EA00079FF042004F0EFFD01A80194FFF790FFC3
:104EB000019AD0F810350448D34003F00103C01A1A
:104EC00003B0F0BDF0F8FCFF0100AD0B08B5144BCA
:104ED000A8220021184605F0E9F9032202611149D0
:104EE0004261114A8161C2614FF480620262002214
:104EF00082624262C26201660C494166102181668B
:104F000003460267C2664267BFF35F8F084911F824
:104F1000010D98540132102AF9D1BFF35F8F08BDFB
:104F2000F40B00209AB00000301800202018002058
:104F3000B3B0000038B54FF02003EFF3118583F3D1
:104F40001288BFF36F8F064B9C6804F08CFD85F3CD
:104F50001188BFF36F8F2046BDE83840FCF7E4BDF1
:104F6000A00C0020104B70B553F82040013053F8CE
:104F70002060A64200D870BDD4E9003595B153B188
:104F80002846984738B10028B8BF4042EB68FF2850
:104F9000A8BFFF201870EA68537843F001035370EC
:104FA0000834E6E79847FBE79CA8000008B50A4BE1
:104FB000012203201A70FFF7D5FF00F0A5FF04209F
:104FC000FFF7D0FF00F04CF9FBF79CFD034A137B81
:104FD00023F00103137308BD301C00208804002057
:104FE00008B50348034A0021121A04F0F7FE08BD71
:104FF000E8020020341C002070B5002386B0012296
:10500000CDE90423194E1A4D01930F22CDE9023246
:105010001849142303FB005506EBC01604464FF451
:10502000C070154B00954FF4A07200FB0411304680
:1050300000F0D6F8737B114AEE6023F0040373731B
:105040004FF4046304FB033313446B600C4B2C7468
:10505000BFF35B8F53E8001F013143E80012002AC1
:10506000F8D1BFF35B8F06B070BD00BF080400200D
:10507000A00C0020002D0020859E0000C0240020F0
:105080009C0C002080B50020A6B0FFF76BFF2D4BD5
:1050900083F308882C4D2D4E6B692D4F43F400731C
:1050A0006B610024E02385F82230EC772C766C7657
:1050B000AC7685F820406B6A43F4E0236B6285F898
:1050C0002340FCF79FFCFCF751FE4FF0FF33AB622F
:1050D000EB62FCF7F3FEFCF789FE40F20113ADF83A
:1050E000243006ABB360CDE91E44219404F06AFE7F
:1050F0000120FFF737FF0220164DFFF733FF00F0C6
:1051000053FC154B75610593012314490094CDE9B7
:1051100003434FF400623B46CDE90144284600F0CA
:105120005FF86A7B064622F0040228466A7304F0A0
:105130000AFF2046FFF760FF3A4631462846FCF753
:10514000F9FD00BF002D002000ED00E0A00C0020C4
:10515000AD4F000088040020B4B00000802E002075
:1051600038B5064C064D0020AC4200D338BD204671
:1051700004F038FE0028F9DB1C34F5E77E0200203D
:105180007E02002073B50C464FF02005EFF311812D
:1051900085F31288BFF36F8FC5685DB125602B68FA
:1051A000C360836901338361002081F31188BFF3F9
:1051B0006F8F11E052EA030603D125606FF00B00F8
:1051C000F3E7CDE900230246083000F029FB18B9C7
:1051D000024B9B685B69236002B070BDA00C00208D
:1051E0002DE9F04385B00732994600F1580322F0CB
:1051F0000706C0E91633109B037306F1400504232C
:10520000002743730D440F9B83738846C0E90677DC
:1052100029468760C7730446FCF774FA08F1400317
:105220000730C4E9183620F007000E9BA0660293F1
:105230000D9B01932D1A0C9B00932A464B46414629
:105240002046FCF745FD054B67659B6803B1DB6EA7
:10525000E366284605B0BDE8F08300BFA00C00203F
:1052600070B5224C224D86B02646AE4204F1300481
:105270000AD300F069FB1D4C1E4EAC4220D306B091
:10528000BDE8704000F074BB54F80C3C059354F832
:10529000103C049354F8143C039354F8183C0293C4
:1052A00054F81C3C019354F8203C009354E90A2321
:1052B00054E90C01FFF794FF54F8303C5E65D3E7E6
:1052C000D4E90A23B3F1FF3F08BFB2F1FF3F05D095
:1052D00052EA0301206803D100F018FB3034CCE718
:1052E0003146183000F06AFCF8E700BFA0A50000C6
:1052F00000A6000005A0000038B5836804466BB323
:10530000194A926893422CD1C368012B03D9013BFF
:10531000C360002038BD4FF02003EFF3118583F305
:105320001288BFF36F8F0169806804F0B7FD2046D3
:1053300004F083FEA06058B190F90E202261002293
:10534000826704F000FE0948294600F0CDFAE0E744
:10535000E06085F31188BFF36F8FDAE76FF0150017
:10536000D8E74FF0FF30D5E7A00C0020311C00201B
:105370002DE9F341044617461E464FF02003EFF394
:10538000118883F31288BFF36F8FC368334A7BB1F0
:1053900080689168884219D057EA060318D188F3CB
:1053A0001188BFF36F8F6FF00F0002B0BDE8F0817E
:1053B000916891F90E1021610133E3609368A36055
:1053C00088F31188BFF36F8F0020EEE72169F2E7C1
:1053D00091F90E1090F90E309942A8BF19466FF05E
:1053E0007E029142B8BF11468B422EDD04F056FD7D
:1053F0000546CDE900761A482246414600F010FAEB
:105400000028E1D04FF02003EFF3118683F31288D8
:10541000BFF36F8FA068D0B1236821699C420AD086
:105420004BB193F90E309942A8BF19466FF07E0335
:105430009942B8BF194604F031FD40B108483146E1
:1054400000F052FA6FF00A00AFE70025D1E7002D17
:10545000F4D186F31188BFF36F8FF3E7A00C00201F
:10546000311C002038B504464FF02003EFF31185BE
:1054700083F31288BFF36F8F04F0DFFD48B1002281
:10548000826704F060FD29460748BDE8384000F017
:105490002BBAD4E902329A4218BF0133A36085F3D4
:1054A0001188BFF36F8F38BD311C002013B54FF04A
:1054B0002004EFF3118184F31288BFF36F8F8468A7
:1054C00044B1013C846081F31188BFF36F8F0020E9
:1054D00002B010BD52EA030406D181F31188BFF374
:1054E0006F8F6FF00F00F3E7CDE90023024602480B
:1054F00000F096F9ECE700BF311C0020C3897F2B38
:1055000012D80A4B1B6863B1094B90F90E201B6837
:105510009A4209DB437BDB0606D1064BC31A18BF50
:10552000012303F0010070470023FAE7F001002097
:10553000EC01002008040020044BC01A044BC010EA
:105540005843044B01221A54704700BF080500203D
:10555000ABAAAAAA311C002070B50E4B0E4C1E7CC3
:1055600006EB460304EBC3040546204604F0B8FDF1
:105570000A4B002228469A55FFF7C0FF48B1084B56
:1055800008491A68013A2046D317BDE8704000F078
:1055900015BB70BDA00C002008050020311C0020A8
:1055A000F00100203955000038B50D4D2B4653F859
:1055B000184F9C4200D004B9EC68AB6838B95A7BEC
:1055C000D20604D1A26912B9DA897F2A05D89C4291
:1055D00002D02046FFF7C0FF23466B6138BD00BFF5
:1055E000A00C002070B590F90D20437B002A0146E5
:1055F00004DA03F07F03437304F06BFC4B7B154A22
:1056000063F07F0310464B7350F8183FD469834210
:1056100008BF002323B9C1E900042160D1610CE077
:1056200091F90E5093F90E60B5420ED0AE420CDDEA
:105630005868C1E90030016059609068431A5842C7
:10564000BDE870405841FFF7AFBF9C42E3D01B68F4
:10565000E0E700BFA00C002070B490F90D30427B51
:10566000002B29DBD30627D183692BBB134962F0BA
:105670007F0242730A4652F8184F944218BF2346DD
:10568000CC6923B9C0E900242060C8610CE090F91E
:105690000E5093F90E60B5420AD0AE4208DD5A684A
:1056A000C0E900321060586070BC0020FFF77CBF7A
:1056B000A342E7D01B68E4E770BC7047A00C002051
:1056C00008B590F90D20437B002A014604DA03F067
:1056D0007F03437304F0FDFB044B9868431A584260
:1056E0005841BDE80840FFF75FBF00BFA00C002095
:1056F00070B515461C46064604F0FDFBB4F1FF3FAD
:1057000008BFB5F1FF3F08D02A46234606F118002E
:105710000249BDE8704000F051BA70BD05A000001C
:105720002DE9F041002A437B0E460CBF10210821D1
:10573000194204460AD10B43DD0903F09F0211D13F
:105740004273082914D00120FFF72EFF1B4B9B68E2
:10575000A3422CD1EFF305834BBB3046BDE8F041AB
:10576000FCF7F8B903F01F03437304F0B2FBE8E75A
:10577000A36813B1204604F0B4FB04F1180004F050
:10578000AFFC04F158074FF00008A56DBD42DAD018
:10579000002DD8D0284604F0A4FB05F1180004F031
:1057A0009FFCC5F878802846FFF756FFEDE786F3A3
:1057B0001188BFF36F8FBDE8F08100BFA00C0020FF
:1057C00038B54FF02003EFF3118583F31288BFF350
:1057D0006F8F104B104A9C681068A04206D1FFF7EB
:1057E000BBFE85F31188BFF36F8F38BD00211B7C92
:1057F00011600A4AD35C002BF3D02046FFF77EFEEF
:105800000028EED0637BDB0602D12046FFF7EAFEDC
:105810002046E4E7A00C0020C00C0020311C002032
:1058200070B50C480C4D86682E600C461146DDE9BB
:1058300004234FF02006EFF3118586F31288BFF39F
:105840006F8F8068FFF754FF2046BDE87040FCF77B
:1058500081B900BFA00C0020C00C0020F8B50446A0
:105860004FF02003EFF3118683F31288BFF36F8F9D
:10587000437BDA0649B219D18569BDB903F07F03CC
:10588000437304F026FB437B164A817363F07F0366
:105890004373134653F8180F984218BF0546D06952
:1058A0005DB9C4E900300460D46111E0A173002047
:1058B00086F31188BFF36F8FF8BD95F90E70B9426A
:1058C0000BD08F4209DD6B68C4E900531C606C602B
:1058D0000120FFF769FE0120EAE7A842E1D02D6828
:1058E000DEE700BFA00C002049B9EFF3058030B916
:1058F000054B5A699B689A4201D0FCF72BB981F39A
:105900001188BFF36F8F7047A00C002010B54FF0C7
:105910002002EFF3118482F31288BFF36F8F427B72
:10592000510704D484F31188BFF36F8F10BD22F0A8
:1059300004024273FFF790FE21460248BDE8104082
:10594000FFF7D2BF321C00204FF02003EFF311818C
:1059500083F31288BFF36F8F044B9A68D37B013BAC
:10596000D37381F31188BFF36F8F7047A00C0020B1
:1059700010B54FF02003EFF3118483F31288BFF3C7
:105980006F8F084B9A68D37B0133D3730020FFF7E6
:105990000BFE84F31188BFF36F8FBDE8104004F055
:1059A00074BB00BFA00C0020024B03F11802C3E936
:1059B00006227047A00C0020F8B54FF02003EFF34B
:1059C000118583F31288BFF36F8F19498868437B71
:1059D00003F07F03437304F07CFA8B685A7B08461C
:1059E00062F07F025A7350F8182FCC69824208BFC8
:1059F000002222B9C3E900042360CB610CE093F9D3
:105A00000E6092F90E70BE420ED0B7420CDD5168A6
:105A1000C3E900210B6053600120FFF7C5FD284654
:105A2000BDE8F840FCF796B8A242E3D01268E0E780
:105A3000A00C002050EA01032DE9F04105460E4676
:105A400003D1FFF7B9FF00202CE0831C71F1FF3375
:105A50002ADB04F05BFB2C184FF02003EFF31188D6
:105A600083F31288BFF36F8F114F124BB868186021
:105A7000FFF726FEB86810492A463346183000F072
:105A80009DF8BA68537B43F0100353734046FCF70C
:105A900061F804F03BFB201A63EB0303012873F168
:105AA0000003D0DBBDE8F0816FF00104241AD3E7D6
:105AB000A00C0020C00C002005A00000B1F1FF3FA9
:105AC00008BFB0F1FF3F08B506D1084B986804F055
:105AD0004AFA4FF0FF3008BDFFF7ACFF4FF47A737E
