:10000000803E0020B5140000B58B0000A114000054
:10001000A1140000A1140000A114000000000000C1
:100020000000000000000000000000007516000045
:10003000A11400000000000011160000A11400002F
:10004000511800005118000051180000511800000C
:1000500051180000511800005118000051180000FC
:1000600051180000511800005118000051180000EC
:1000700051180000511800005118000051180000DC
:1000800051180000511800005118000051180000CC
:1000900051180000511800005118000051180000BC
:1000A00051180000511800005118000051180000AC
:1000B000511800005118000051180000511800009C
:1000C000511800005118000051180000511800008C
:1000D000511800005118000051180000511800007C
:1000E000511800005118000051180000511800006C
:1000F000511800005118000051180000511800005C
:1001000053B94AB9002908BF00281CBF4FF0FF317E
:100110004FF0FF3000F00CB8ADF1080C6DE904CEE3
:1001200000F008F8DDF804E0DDE9022304B07047D0
:10013000704700BF2DE9F04786468C460846089E6A
:10014000154674461946002B40F0C2808542B2FA2B
:1001500082F245D94AB1C2F1200300FA02FC2EFA1C
:1001600003F3954043EA0C0C94404FEA154EA8B2B5
:10017000BCFBFEF8230C0EFB18CC08FB00F943EA8D
:100180000C43994528D9EB1808F1FF3704D299455B
:1001900002D9A8F102072B44A3EB0903A4B2B3FBD5
:1001A000FEFC0EFB1C330CFB00F044EA0344A042AF
:1001B00014D92C190CF1FF3304D2A04202D9ACF1AE
:1001C00002032C44241A43EA07401EB1D440002302
:1001D00034607360BDE8F0874746DDE76346F1E7CA
:1001E00092BB431B01214FEA154EAFB2B3FBFEFC9D
:1001F000200C0EFB1C330CFB07F840EA0343984528
:1002000062D9EB180CF1FF3004D2984502D9ACF159
:1002100002002B44A3EB0803A4B2B3FBFEFC0EFBCD
:100220001C330CFB07F744EA0344A7424ED92C19B0
:100230000CF1FF3304D2A74202D9ACF102032C44E3
:10024000E41B43EA0040C0E7C2F1200320FA03F1B7
:10025000954090402EFA03F303434FEA154EAFB298
:10026000B1FBFEFC0EFB1C10190C0CFB07F841EA5D
:100270000041884504FA02F422D969180CF1FF30D4
:1002800004D2884502D9ACF102002944A1EB08014F
:100290009BB2B1FBFEFC0EFB1C110CFB07F743EA03
:1002A00001439F420ED9EB180CF1FF3104D29F425B
:1002B00002D9ACF102012B44DB1B41EA004192E779
:1002C0006046E3E76146F7E76046A3E76346B7E7C2
:1002D000834206D916B9002108467BE7C6E900E04B
:1002E000F9E7B3FA83F78FB9834201D3724508D88F
:1002F000BEEB020460EB030301209C461EB9002103
:1003000068E73846FAE7C6E9004CF8E7C7F1200C81
:10031000BB4022FA0CF41C432EFA0CF120FA0CF329
:10032000B84001434FEA14490EFA07F5B3FBF9F858
:100330001FFA84FE09FB18300B0C08FB0EFA43EA87
:1003400000439A4502FA07F240D9E31808F1FF305A
:1003500004D29A4502D9A8F102002344A3EB0A0370
:1003600089B2B3FBF9F809FB183308FB0EFE41EA2A
:1003700003418E452CD9611808F1FF3304D28E4514
:1003800002D9A8F10203214443EA0040A0FB0298ED
:10039000A1EB0E014145CE46434602D306D14D4561
:1003A00004D2B9EB020E68EB04030138002EA6D08C
:1003B000B5EB0E0261EB030101FA0CFC22FA07F324
:1003C0004CEA0303F940C6E9003198E74046C5E727
:1003D0004346D9E7034613F8012B002AFBD1181A2C
:1003E00001387047000000002DE9F04F89B00590FA
:1003F000294FBB68039306AA5B68012138469847DA
:10040000002839DBDDE9064A244EDFF89480A4FB9E
:1004100006B306FB0A33049304991DA3D3E9002312
:100420005846FFF76DFE4FF0FF39049BD94578EB36
:100430000303054623D3059B642B28BF6423734322
:100440006422B3FBF2F3A3FB046403FB0A442146DA
:100450000FA3D3E900233046FFF752FEB14578EBF6
:10046000040403460BD385420CD3039A0121009167
:10047000146838462A46A04709B0BDE8F08F6FF0EF
:100480008500F9E76FF01500F6E700BFAFF30080D5
:1004900000CA9A3B00000000B89E000080969800B9
:1004A000FFC99A3B2DE9F047DFF8B4A02D4F56461F
:1004B000D046D14600F0F0F90446B8B9014600F044
:1004C0005BFB2146012000F057FB2146022000F093
:1004D00053FB2146032000F04FFB4FF4FA7008F065
:1004E000AEF944464D46A2462E46E3E700F078F9C1
:1004F000054600F085F9AE42044601D1824504D09C
:1005000022462946384608F0FBF9A31EAB420BDD14
:100510000120002100F030FB022000F035FB00211B
:10052000032000F029FB0DE0A31CAB420FDA0021F1
:10053000012000F021FB0220002100F01DFB032020
:1005400000F022FB4FF4FA7008F079F9CBE70121B3
:10055000084600F011FB0021022000F00DFBDEE751
:1005600018FCFFFFF4A4000010B5084C237823B951
:100570004FF4FA7008F063F9F8E700F05FFB002829
:1005800001DB00F01DF94FF47A70F3E794170020B7
:1005900038B5074C4FF0FF324FF0FF33204604F0E0
:1005A0002DFC044B1D68204604F0ECFB284638BDAA
:1005B00090020020D000002038B50446074D4FF0CF
:1005C000FF324FF0FF33284604F018FC044B1C6048
:1005D0002846BDE8384004F0D5BB00BF900200209B
:1005E000D000002008B5174808F08AF900F0DEFABC
:1005F00000F0DCF908F033F900F05CFB002804DAC5
:10060000BDE80840104808F07BB93220FFF7ECFE47
:100610000E4808F075F90E4808F072F90D4808F018
:100620006FF90D4808F06CF90C4808F069F90C48AE
:1006300008F066F90B4B0C481968BDE8084008F053
:100640005FB900BF3AA5000046A5000057A500000D
:100650005FA50000D3A50000FFA5000074A6000060
:10066000D0A60000D0000020F4A6000070B50378EA
:100670000D468CB00446013911F8012F9AB903AE2A
:100680000A4ADBB20421304607F0DAFD084A234665
:100690002021CDE9005604A807F0D2FD04A800F0FF
:1006A000B7F90CB070BD1344E6E700BF21A7000006
:1006B00026A7000030B5052985B004462FDD037854
:1006C000232B2CD1421812F8013C212B27D1431F98
:1006D0001944002310F8015F88422B44FAD112F824
:1006E000041C8DF8041012F8031C12F8022C8DF86B
:1006F00005108DF80620DBB2224A042102A807F07B
:100700009FFD032202A901A809F094FA054678B1D9
:100710001D491E48FFF7AAFF6FF0010505E01A49C1
:100720001B48FFF7A3FF4FF0FF35284605B030BD4B
:1007300063784D2B10D0532B1ED0432B1FD100F0CC
:100740004FF806210346134A02A807F079FD124824
:1007500002A9FFF78BFFE8E7A3788DF80830E3786C
:100760008DF809308DF80B0023798DF80A3002A836
:1007700009F05CFA00F080F803490848E9E702490B
:100780000748E6E721A700003BA8000032A70000C9
:100790002FA7000035A700003BA700003DA70000E1
:1007A00040A7000002460B46014804F027BB00BFEB
:1007B000CC020020014804F0E5BA00BFCC020020C2
:1007C00010B54FF0FF3104464FF0FF30FFF7EAFF5E
:1007D000024B1C60BDE81040FFF7ECBFDC000020BE
:1007E00010B54FF0FF304FF0FF31FFF7DBFF034B49
:1007F0001C68FFF7DFFF204610BD00BFDC000020B3
:1008000010B54FF0FF304FF0FF31FFF7CBFF034B38
:100810001C68FFF7CFFF204610BD00BFD8000020A6
:1008200008B54FF0FF314FF0FF30FFF7BBFF064A2E
:100830000649136809688B42BCBF01331360BDE8E9
:100840000840FFF7B7BF00BFD8000020D400002049
:1008500008B54FF0FF304FF0FF31FFF7A3FF054A17
:100860001368002BC4BF03F1FF331360BDE80840D9
:10087000FFF7A0BFD800002010B54FF0FF310446AD
:100880004FF0FF30FFF78EFF024B1C60BDE81040B9
:10089000FFF790BFD400002010B54FF0FF304FF0AD
:1008A000FF31FFF77FFF034B1C78FFF783FF2046E4
:1008B00010BD00BF9517002008B54FF0FF304FF076
:1008C000FF31FFF76FFF044A137883F001031370C1
:1008D000BDE80840FFF76EBF9517002010B54FF038
:1008E000FF3104464FF0FF30FFF75CFF024B1C6006
:1008F000BDE81040FFF75EBFD80000202DE9F047AB
:100900000B78022B0D4635D0052B39D0BDE8F0878A
:10091000AB6809EB0602D35C232B0DD100222260C9
:1009200022683E2A03DC2268511CBB542160013638
:10093000EB68B342ECD8E9E722683E2ADFBF2268C1
:10094000511CBB542160212BF1D12368124913485B
:100950004FF0000807F8038007F0D2FF21680E4827
:10096000FFF7A8FE402241460B48C4F8008009F07A
:10097000FEF9DCE7DFF828900A4C074F0026D7E79E
:10098000094B186883680649DC684022A4464FF486
:100990007A73BDE8F04760479617002043A7000030
:1009A000D617002038050020E000002010B5114CBB
:1009B000206808F069FF20B90F48BDE8104007F033
:1009C0009FBF206883681B680BB90C48F5E70C498A
:1009D000002298470028F8D1206883680949DC681C
:1009E00040224FF47A73A04708B10748E5E707486B
:1009F000E3E700BFE000002057A700006EA700005B
:100A0000FD080000D61700208BA70000A5A7000056
:100A100070B5084B04461D68FFF7DCFC0246AB6866
:100A20005E6821462846B4464FF0FF33BDE870406B
:100A3000604700BFE000002038B5424B994227D103
:100A4000414D42484FF4001107F03DFF2B78B3B9F8
:100A50003F4C2068FFF742FF012321683D482B707F
:100A600007F04EFF3C4807F04BFF3C4807F048FFBB
:100A700036484FF0B861BDE8384007F024BFFFF7B3
:100A80001BFFFFF709FF0146354807F0E9FEEFE7D6
:100A900003F10C02914228D132484FF4001107F0C3
:100AA00012FF294B1B7873B9FFF772FD0130FFF776
:100AB00083FDFFF76DFD01462B4807F021FF294814
:100AC0004FF0B861D7E7FFF7ABFEFFF799FE04469A
:100AD000FFF786FE21460546244807F011FF24480B
:100AE0002246294607F00CFFE9E71833994228D13E
:100AF00020484FF4001107F0E6FE134B1B7873B942
:100B0000FFF746FD0138FFF757FDFFF741FD0146AE
:100B1000154807F0F5FE17484FF0B861ABE7FFF74F
:100B200097FEFFF76DFE0446FFF75AFE2146054685
:100B30000E4807F0E5FE0E482246294607F0E0FE83
:100B4000E9E738BD3C05002094170020C8A000004C
:100B5000D0000020B7A70000E6A7000003A800000F
:100B6000E0A00000D0A000003CA800005DA80000AC
:100B7000F5A40000D8A00000024B03EBC00007F072
:100B80006FBE00BFE0A0000010B5064B064C03EBA3
:100B9000C000217807F064FE237883F001032370FE
:100BA00010BD00BFE0A00000161800202DE9F041A4
:100BB0001D481E4C07F0A4FE0025206808F064FEC6
:100BC00080B320464FF4B011013507F05DFE042DCF
:100BD00004F10804F1D1164C164DDFF85C800026B4
:100BE0002768384608F050FEE0B14FF480312046C7
:100BF00007F04AFE4FF0B861204607F064FE237903
:100C0000012202FA03F3C5E90183BB68DB6913B172
:100C10002946384698470136032E04F1080405F1A9
:100C20000C05DDD1BDE8F08189A80000E0A000003E
:100C3000C8A000003C050020390A0000F0B585B0CE
:100C400000238DF802308DF80330184C204608F050
:100C50001BFE38B92168164807F052FE4FF0FF30EE
:100C600005B0F0BD0DF103030193012502230295A8
:100C70008DF80C30A6684D23B7682A4601A9204696
:100C8000B8470028EAD10DF10203CDE9013503236D
:100C90008DF80C304D23B6682A4601A92046B0478E
:100CA0000028DBD19DF80200DAE700BFA49E000017
:100CB00099A8000008B5074808F0E6FD20B1BDE896
:100CC00008400020FFF790BB034807F019FE4FF0E3
:100CD000FF3008BDB89E0000B3A80000014B1B68A0
:100CE000184700BFE4000020014B1860704700BFA8
:100CF000E400002030B585B004460D4610220021E6
:100D0000684609F034F802238DF802302A46044B75
:100D100001932146684607F035FB05B030BD00BFA2
:100D2000DD0C000080B505460E461746984604F0D7
:100D300025FC034609F02CF8DFF81890044649F822
:100D40000030424630463946A84754F8090000F0C2
:100D500031FC00BF080000002DE9F047058B044678
:100D60002807904611D4022905F0070540F0CD80F0
:100D7000204607F03BFE78B10138218B042811D8BA
:100D8000DFE800F0C3106D85950001290CBF45F028
:100D9000100545F02005258388F31188BFF36F8F78
:100DA000BDE8F08701F0070AAA4500F0A6800027F9
:100DB000B9463E46A368002B00F0BD8041F0080113
:100DC000218388F31188BFF36F8FA168002900F099
:100DD000BB800D68002900F0B780D1F8048033464D
:100DE00052462046C047002D76D02B6829461D4626
:100DF000F0E701F007035A1F012A1BD8002221F057
:100E00000701062B276889B2C4E9002209D13B46B5
:100E100003E0628B013262831B68002BF9D141F041
:100E200002012183204607F0E1FD00287BD041F03C
:100E3000200177E0042B0AD121F0070189B2218338
:100E4000204607F0D3FD10B141F020012183218B12
:100E500001F0070AAA4550D00027B946AAE723693E
:100E600021F0070141F00601062DD3F800902183FF
:100E70002DD1B9F1000F40D041F00801218388F352
:100E80001188BFF36F8F3A492046C84729E021F007
:100E90000701236941F0040189B2042DD3F80490BD
:100EA0002183E6D000273E464FF0040A82E721F076
:100EB0000701236941F0050189B2052DD3F8089097
:100EC0002183D6D000273E464FF0050A72E700275F
:100ED0003E464FF0060A6DE72B4687E7B9F1000F53
:100EE000D1D14FF02003EFF3118883F31288BFF3C1
:100EF0006F8F238B23F008032383258BEA062ED5DF
:100F000025F01003238305F007056669218B002E69
:100F1000BFF66FAF00232768C4E9003321F0070153
:100F200041F001012183218B01F0070AAA454FF00E
:100F300000097FF43FAF002F9BD041F008012183CF
:100F400088F31188BFF36F8F002FC7D03D683946F3
:100F500033465246204607F075FD2F46F4E7AB06B0
:100F60007FF51AAF25F02003238305F00705FFE680
:100F7000718A000008B504464FF02002EFF3118398
:100F800082F31288BFF36F8F02F06EFA204600F0F2
:100F9000BBFA034807F0B4FC00F034FCFCE700BFE8
:100FA000CAA80000014B03600020704700A10000A8
:100FB000014804F043BD00BF00A1000038B504465D
:100FC00018B90F4B0F485B6898476168B1F5683FE7
:100FD00010D0B1F5680F0DD00B4DA9420AD011F415
:100FE0006861206807D00146084808F080FC0023AB
:100FF0002360656038BD142208F0B9FEF9E700BF30
:10100000F8010020F3A800002C5F5CA9600A002012
:1010100008B520B34368B3F5683F10D101220368D7
:10102000BFF35B8F53E8001F002903D143E8002082
:101030000028F7D1BFF35B8F0DD1002008BD094A0E
:1010400093420AD000684FF0FF324FF0FF3303F0B5
:10105000D5FE0028F1D00448F0E70448EEE76FF42D
:10106000E040EBE72C5F5CA9E98FFFFFEA8FFFFF11
:1010700008B5D8B14368B3F5683F10D100220368C2
:10108000BFF35B8F53E8001F012903D143E8002021
:101090000028F7D1BFF35B8F0BD1002008BD074AB2
:1010A000934208D0006803F06DFEF6E76FF4E0406D
:1010B000F4E70348F2E70348F0E700BF2C5F5CA9C0
:1010C000E98FFFFFEA8FFFFF10B5044618B91D4BEB
:1010D0001D485B6898476368B3F5683F2FD0B3F548
:1010E000680F2CD0194A934219D1236803BB1848C2
:1010F0004FF0FF324FF0FF33214603F089FD08B96E
:1011000023681BB90F4B13485B689847206814226B
:10111000002108F02CFE4FF46863636008E0B3F52B
:10112000683F0DD83A2B03D040F6BA629342DED125
:10113000206808F01CFC636843F03A03636010BD4C
:10114000054AF3E7F8010020F3A800002C5F5CA932
:10115000600A002019A900003A00003A08B50649C3
:1011600006484023142208F0B4FBBDE808400449B7
:10117000044804F027BD00BF60050020600A00207D
:1011800008A100001CA1000030BFFFF7FDBF00BF99
:10119000114B124A2DE9F041D518DFF84480013D8A
:1011A000B5FBF3F55D430F4B08EB0304013CB4FBC7
:1011B000F3F403FB04540E1B07460B49304608F0BA
:1011C000AEFD701942460021083E08F0D0FD3E6792
:1011D00004F10800BDE8F0810100000000000000FB
:1011E0000800000004000000C0A00000044B996843
:1011F0005869884203D003494FF080520A60704713
:10120000A40C002004ED00E070B5264B15469A6A48
:1012100012F0100F9A6A14BF1124102412F0080F54
:101220009A6A18BF1224920706460AD5586B9A6A22
:10123000140634D519B19A6A22F080029A621324F6
:1012400001E06FF01500174B9A6A12F0010F9A6ACD
:1012500018BF142412F0200F9A6A18BF1524D20662
:1012600002D49B6A9B070AD50E4B5B68190506D50D
:10127000314600F08FFA10B180F309880224094B3F
:101280009A6A920642BF5A6A22F400525A629A6AD5
:1012900042F0FF029A6200232B70204670BD6FF06F
:1012A0001500CCE700ED00E0134B9A6A12F0007FC6
:1012B0009A6A14BF1E201D2012F0807F9A6A18BF00
:1012C0001F2012F4002F9A6A18BF212012F4802FD9
:1012D0009A6A18BF222012F4003F9A6A18BF23208E
:1012E00012F4803F9A6A6FEA02426FEA12429A62EF
:1012F00018BF2420704700BF00ED00E010B5194B67
:101300000246986A9C6A10F4805F14BF172016206A
:1013100014F4006F9C6A18BF1820A40509D5986BB7
:10132000986A000404D51AB19A6A22F400429A62BB
:1013300019200C4B9A6A12F4806F9A6A18BF1A200F
:10134000D2050CD49B6A13F4005F18BF1C20054A19
:10135000936A43F47F43936200230B7010BD1B20FC
:10136000F5E700BF00ED00E0F0B5484B5B688BB0DF
:101370000446C3F30803002585F31188BFF36F8F7C
:1013800002F07F40B0F17F4F11D102F00C0008282D
:101390000DD010074CBF0C4601250022033B8DF8F1
:1013A0000720032B05D8DFE803F0246367602C4691
:1013B000F3E700239DF80720CAB902AE04F1200725
:1013C00020686168324603C20834BC421646F7D131
:1013D000099A002D54D0C2F3080121B96FEA5222B4
:1013E0006FEA4222099202A9184607F0DDFB0BB012
:1013F000F0BD264BDA6A9107DBD4DA6A002AD8DB23
:10140000DA6A5200D5D55A69A16942F480725A61EC
:10141000BFF34F8FBFF36F8F5A6931F8021C22F46C
:1014200080725A61BFF34F8FBFF36F8F4DF6027218
:1014300091420AD09A6AD2B24AB10DF10702012153
:101440002046FFF7E1FE0346B4E72368B2E79A6A55
:1014500012F47F4F05D00DF107010120FFF74EFF79
:10146000F1E79B6AB3F5803FA3D3FFF71DFFEAE7DF
:101470000DF107020021E3E70DF107010020EDE780
:1014800022F4FF7222F00102ACE700BF00ED00E0A1
:10149000024A536943F010035361704700ED00E0C6
:1014A000EFF30880EFF3098101B57246FFF75CFFA7
:1014B00001BD00BF002080F31488BFF36F8F00F0E0
:1014C00027FB00200D490860BFF34F8F0C4880F3C5
:1014D000088800F03DF8202080F3118809484FF477
:1014E0000461401880F30988EFF314800221084357
:1014F00080F31488BFF36F8F00F014F994ED00E0CF
:10150000803E0020C02C0020BFF34F8F0549064BC2
:10151000CA6802F4E0621343CB60BFF34F8F00BF91
:10152000FDE700BF00ED00E00400FA050749D1F82F
:1015300090200023C2F307221846934200DB704735
:10154000C1F89830C1F8A0000133F6E700ED00E0E3
:1015500008B572B6002383F31388FFF7E7FF144B37
:101560004FF0FF32C3F88020C3F88420C3F88820EE
:10157000C3F88C20C3F89020C3F89420C3F89820B7
:10158000C3F89C20C3F88021C3F88421C3F88821C4
:10159000C3F88C21C3F89021C3F89421C3F8982193
:1015A000C3F89C2162B6BFF34F8FBFF36F8F08BDA6
:1015B00000E100E0084B9B6883420BD1EFF3058309
:1015C00043B1064B5A6842F080525A605A6A22F47C
:1015D00000425A6208F0C4BAA40C002000ED00E0FA
:1015E000094A93686FF00A019967084958674B6880
:1015F00043F080534B60002383F31188BFF36F8F58
:101600009368986F704700BFA40C002000ED00E0C5
:1016100015498A684FF030001044EFF3098C80E8D8
:10162000F01F202080F31288BFF36F8F0F4F4FF011
:1016300000664A698A603E604FF0700414192068A1
:101640000B4C2060506F0023536780F3118804B562
:10165000104600F01DF9BDE8044002F1300090E8AA
:10166000F01F8CF309887047A40C002004ED00E003
:101670007C0A00201EF0040F0CBFEFF30880EFF38C
:101680000980816911F8021C0229FFD001B507F019
:101690008DFA01BD40B2002807DB044A410901234D
:1016A00000F01F00834042F82130704700E100E065
:1016B00040B200280CDB4309064900F01F0020332C
:1016C0000122824041F82320BFF34F8FBFF36F8F79
:1016D000704700BF00E100E0054B420900F01F0029
:1016E00053F82220012303FA00F01040704700BF96
:1016F00000E100E040B20028A8BF00F1604001F125
:101700000101B8BF064B4FEA4111ACBF00F5614083
:1017100000F00F00C9B2B4BF195480F8001370472D
:1017200014ED00E00B4A08B50B4B22F07F029A60E3
:10173000BFF34F8FBFF36F8FD3F8882022F470026E
:10174000C3F8882003F092F903F01EFF00F074F84C
:1017500003F0DEF90000000000ED00E042F8203C5C
:10176000009B42F81C3C0A49019B42F8183C029B32
:1017700042F8143C21F001014FF0807342F8043C20
:1017800042F8081C0023203A02654367704700BFF7
:10179000250D0000094A0346906870B113F1160F39
:1017A000006E05D0A0F140029A4205D8834203D2D0
:1017B000814228BF0020704700207047A40C002001
:1017C00008B514460A4A0B4B9060026F1A600D462A
:1017D00000F05EF8204685F30988002163B681F3A6
:1017E0001188BFF36F8F00220023FFF79BFA00BF21
:1017F000A40C00207C0A0020014910220A607047D6
:1018000010ED00E072B6404080F31188BFF36F8F97
:10181000BFF34F8F30BF62B6BFF36F8F704700BF0B
:1018200072B6494081F31188BFF34F8F20BF80F318
:10183000118862B6704700BF044800232021C218F7
:101840000133302B82F80013F9D1704700E100E03A
:1018500001B5EFF30580A0F110004FEAC000044984
:10186000014409C99847BDE8014002490847000002
:10187000E09E0000ED110000024B034A03480121E5
:1018800000F040B800000420000000202CA100005F
:10189000026E054B403A1A60044A4021C3E9011226
:1018A0001846012100F038B8800A002000000B150E
:1018B000084AC2F898000B6823F01F03034343F063
:1018C0001003C2F89C308B6843F00103C2F8A030CB
:1018D000704700BF00ED00E0044B0522C3F89420E0
:1018E000BFF34F8FBFF36F8F704700BF00ED00E075
:1018F000BFF35F8F024B0022C3F89420704700BFF4
:1019000000ED00E010B5034C0123227807F06DF9DB
:10191000207010BD1718002008B5094A002312785E
:1019200007F063F910F1160F03D0064B00220728C9
:1019300000DD08BDC3F89800C3F8A0200130F6E729
:101940001718002000ED00E0F0B5454D2C68082C7C
:1019500085B000F28280FFF7CBFF00200C26844286
:101960000DD1404D404F2C706846FFF71BFB002403
:101970000646A6420AD1FFF7AFFF00201CE06968C7
:1019800006FB0011FFF794FF0130E8E7009800EB39
:1019900004114FEA041CCB683B40B3F5000F4AD05A
:1019A0000CD8B3F5001F30D0B3F5800F38D0B3F5A5
:1019B000801F12D06FF0150005B0F0BDB3F1807F2D
:1019C00042D0B3F1007FF5D150F80C3088684A68F6
:1019D00007F0FBF840F4802009E050F80C308868EC
:1019E0004A6807F0F2F840F0885040F43020039045
:1019F00028780728CDE90123DCD801A9FFF758FF93
:101A00002B7801332B700134B3E750F80C30886821
:101A10004A6807F0DAF840F0885040F40020E6E722
:101A200050F80C3088684A6807F0CFF840F0E06062
:101A300040F40030DBE750F80C3088684A6807F063
:101A4000C4F840F08270D2E750F80C3088684A68D9
:101A500007F0BBF840F08870C9E74FF0FF30ABE704
:101A600038A10000171800200000F0FF08B5024B55
:101A70001B689847002008BD8C0A0020034B044ACD
:101A80001860937843F00203937070478C0A00202B
:101A90000801002008B50649064821F00701C1F1F8
:101AA000005202F5802206F064FF002008BD00BF4E
:101AB000C73E0020900A00200E4A0123C2F840359C
:101AC0004FF080424FF08051C2F87835D1F83001A4
:101AD000082808D1D1F83411052904D80648415CFA
:101AE00009B1C2F838364FF080430122C3F880258F
:101AF0000020704700E0014055A9000020B1034BD1
:101B0000800143F001031847704700BFC0A00000E8
:101B100001F0DCBC084B70B5C31A0D4607499B1099
:101B2000044659430648402207F0AEF82B460146CA
:101B30002046BDE870401847B00A0020B76DDBB6FC
:101B40002C9E000073B50C4C0C4A4023041B0093E0
:101B50000D460B460A49A41061430646094807F0A2
:101B6000C0F8011E05DA30462B4602B0BDE87040D1
:101B7000184702B070BD00BFB00A00204F8D0000B2
:101B8000B76DDBB62C9E0000002270B50121044623
:101B90001046FFF7AFFD0F4801F022FE0E4B9842B2
:101BA00015D101F02DFE26690C49304606F06EFF76
:101BB00000280BDB012535642469084904F11C0069
:101BC00006F064FF002801DBE564002070BD6FF0C3
:101BD0000400FBE7151C00000000AD0B58A100003D
:101BE00070B501460C2309484B43C418D4E90E567E
:101BF000403300221844A26307F033F82DB1324677
:101C00002B460348BDE87040184770BDB00A00205D
:101C10002C9E000010B1012804D07047034B1B6CB0
:101C20005B0701D1FFF7DCBF704700BFB00A00209F
:101C300008B54FF02003EFF3118183F31288BFF34F
:101C40006F8F124A136843F002001060DA0708D45D
:101C500081F31188BFF36F8F0120BDE8084001F0C8
:101C6000E1BD4FF08043D3F80C24D3F80C34DB07EC
:101C7000EED5074806F0F5FF81F31188BFF36F8FAB
:101C80000020BDE80840FFF7ABBF00BF000B0020FD
:101C9000F00A00201FB500220123CDE90223094AE2
:101CA000CDF800D06B46CDF804D007F049F80028F5
:101CB00005DB4FF480420023684603F03DF905B090
:101CC0005DF804FB6D8D000010B54FF02003EFF3BD
:101CD000118483F31288BFF36F8F074A136823F0D0
:101CE0000201DB07116002D4012007F039FC84F304
:101CF0001188BFF36F8F10BD000B00202DE9F0415C
:101D00003849BFF35B8F0746012251E8003F41E8A5
:101D100000200028F9D1BFF35B8F33B93249334833
:101D20004B60CB608A6006F0C4FE7B1E012B2BD873
:101D3000012F07D14FF08043D3F81C3403F0030385
:101D4000012B21D007F0F9FD0546F8B9284B1B7887
:101D5000E3B14FF080430222C3F808230646DFF8C0
:101D600094804FF08044D4F81824D4F81834D20367
:101D700016D503F00303012B01D0012F10D15DB361
:101D800086F31188BFF36F8FBDE8F0814FF0200319
:101D9000EFF3118683F31288BFF36F8F0125DEE71F
:101DA000ADB13046FFF73CFDD4F81835002BDAD141
:101DB000D4F80421002AD6D0C4F80431D4F8043170
:101DC0000123C4F81835C8F88031A360CBE700219F
:101DD000212003F0B9FBE7E74FF080430222C3F86C
:101DE0000423D1E7AC0A00209C0A0020CC0A002082
:101DF000321C002000E100E008B5074807F044FD70
:101E000038B10648FFF73AFE0448FEF76DFF0020A0
:101E100008BD6FF01200FBE7909E0000211E00003D
:101E20000A2838B5074D044604D1AB680D21DB699B
:101E300028469847AB680348DB69E1B298472046DB
:101E400038BD00BF909E00004FF02003EFF31182D9
:101E500083F31288BFF36F8F094BD3F8001161B180
:101E60000021D3F80805C3F80011D3F80031C0B23F
:101E700082F31188BFF36F8F70476FF00A00F7E7A6
:101E800000D00040F0B5034610469C7893F803C09C
:101E90004FF02005EFF3118285F31288BFF36F8FA7
:101EA0001F7893F801E0E41B04EA0C04A04288BF09
:101EB000A0B23E180CEA06063D461E7082F3118859
:101EC000BFF36F8F0A188A4217D177450DD14FF0B3
:101ED0002001EFF3118281F31288BFF36F8F19781D
:101EE000597082F31188BFF36F8F1B79241AA342B4
:101EF00022BF064B01221A60F0BD5E1901357679CA
:101F000001F8016B05EA0C05DDE700BF00D00040D9
:101F1000DB432DE9F04713F001050E46144604D0CB
:101F20002348FFF7AFFFBDE8F087A2B34FF02003CF
:101F3000EFF3118883F31288BFF36F8F0D20FFF743
:101F4000CBFB07460D20FFF7B3FB88F31188BFF3E7
:101F50006F8FDFF860A0DFF86080CAF80051DAF810
:101F600000314FF400590123CAF800302546C8F863
:101F70008091DAF8003183B1FFF766FF031EC8F8DD
:101F80008091F6DB013DADB27355002DF1D117B153
:101F90000D20FFF77FFB2046C5E74FF02003EFF34E
:101FA000118083F31288BFF36F8FFFF739FCE0E7EE
:101FB000240B002000D0004000E100E02DE9F041BA
:101FC000124F0D46144607F1350814B92046BDE8F6
:101FD000F0814FF0FF334FF0FF32384602F0ACFF94
:101FE000224629464046FFF74DFF0646384602F096
:101FF0007FFF3EB94FF0FF324FF0FF33044802F04D
:102000009BFFE6E7A41BA4B23544DEE7040B0020E7
:10201000140B002038B5184C01221146204607F059
:10202000ADFC0122002104F1100007F0A7FC40F2F2
:10203000074323874FF0706323620C2384F8243016
:1020400000250E4B84F83550E586D3F8042522F0A0
:102050000102C3F804250121C3F80051D3F800217F
:10206000C3F804132A4619600D20FFF743FB0D2027
:10207000FFF710FB284638BD040B002000D00040BD
:1020800010B5FFF7E1FE002820DB174B93F8222064
:1020900093F8214093F82310141B31EA0404C0B2D2
:1020A0000DD193F8372093F8364093F83810141B6D
:1020B00031EA04040BD10D4B01225A600EE09C184A
:1020C0000132114084F8250083F8221010BD9C18BD
:1020D0000132114084F83A0083F837100448BDE813
:1020E000104002F005BF00BF040B002000D00040EC
:1020F000140B0020F0B54068057B01F01F0444EA92
:102100004514056987B0002D64D0B2F5001F00F1B9
:10211000100506D12146284607F0A2FA002007B094
:10212000F0BD01AE0027B2F5800F0197776039D17D
:10213000B3F1007F14BF052304238DF8043000237E
:10214000CDE904630393836823FA01F111F00101DF
:102150001AD1B2F1A07F17D104F01F03620903F571
:10216000E0732AD0012A3BD11F4A52F82330DB0703
:102170000AD40DF1030632462146284601F030FE0E
:102180001A4B98421CD0029603AA2146284601F019
:10219000E9FC174B984220D101222146284601F044
:1021A00087FEBBE7B3F1C06F05D0B3F1007F14BF6A
:1021B00001230223C1E70323BFE74FF0A042D4E786
:1021C0003146284601F06EFE094B9842DBD06FF095
:1021D0000B00A4E76FF08500A1E76FF015009EE704
:1021E00051F82330FFDE00BF000300500400AD0BA8
:1021F0000000AD0B38B545682B69B3B110352846E2
:1022000001F040FE044680B90146284601F002FE76
:10221000084B98420BD108492246284601F0DAFDC6
:10222000224605210620FFF765FA002038BD6FF031
:102230000400FBE70000AD0B3D220000420970B531
:10224000034602D0012A17D070BD0D4E3269516885
:102250000029F9D003F01F0301250C689D400029D7
:10226000F2D08A682A4002D04B68304698472CB199
:10227000236821461C46F2E7024EE7E72346F8E7CB
:10228000549E0000409E00002DE9F043466840F255
:102290000635D006337B87B002EA050554BFC2F38A
:1022A0004010032001F01F07B5F5837F144647EA6D
:1022B00043178DF8030044D00FD8062D18D007D847
:1022C000B5B1022D3FD06FF0150007B0BDE8F08327
:1022D000B5F5807FF7D101250AE040F20222954250
:1022E00033D0B5F5407F32D0B5F5007FEBD1022574
:1022F00022032ED5726801238B40C2F8083532695B
:1023000092BB07F01F037F092BD0012F79D13F4AE1
:1023100002EB830284F48033D2F80017C3F3004346
:10232000C4F3404444EA430421F4E16144EA8004F4
:1023300021F0070144EA05230B43C2F800370020CF
:10234000C3E70725D4E70425D2E70525D0E7032511
:10235000CEE7630341BF012372688B40C2F80C359E
:10236000CDE74FF0A042D3E710360DF10202394617
:10237000304601F035FD14F4403F80460CD139461B
:10238000304607F06BF9224B9845D8D19DF80210E2
:10239000304601F081FDD2E701AB4FF0000903AAFE
:1023A00039463046CDE90439CDE90199CDF80C9094
:1023B00001F0D8FB164B984285D114F4003315D0A8
:1023C0009DF803308DF80E3084F48034C4F300445B
:1023D0004B4603AA394630468DF80C508DF80D4017
:1023E00001F07AFC0A4B9842CDD06CE7CDE904337A
:1023F00003AA0DF1030339463046039301F0B2FB03
:10240000F0E703F5E07352F82330FFDE00030050DD
:102410000000AD0B08B543681B68D3F80805D3F876
:102420000C1502F02BFA034B984214BF6FF00F000B
:10243000002008BD0000AD0B37B504460022012185
:102440000320FFF757F963689D6901AA0021284618
:1024500006F02AFD002814DB019B2A681979186808
:1024600000F0C0F800280CDB60682369064A00F120
:10247000080102F0A9F8054B984214BF6FF00F0055
:10248000002003B030BD00BF912400000000AD0B60
:102490000378012B08D0022B08D04BB9054B0B62F7
:1024A00001F1100002F024BD034BF8E7034BF6E7FF
:1024B000034BF4E70000AD0B0100AE0B0200AE0BC6
:1024C0000100AD0B2DE9F04F8BB005460C4691464F
:1024D0000193476806694FF0FF324FF0FF333046F3
:1024E00002F02AFD06F1100A00220023504602F0F5
:1024F00023FD384602F0ACF8DFF8C0B04FF000081A
:10250000C14501D800242EE0237A039313F008017B
:102510004DD112220DF11600029107F028FC039B09
:1025200060680199069003F0010220688DF815108B
:1025300013F0020F02998DF8142008901DD109F1B3
:10254000FF33434502D9237D5B0718D57ABB202290
:1025500005A9384602F0A8F8584512D0184B984201
:1025600028D06FF00404384602F082F8304602F0BA
:10257000BFFC20460BB0BDE8F08F0A46E8E74022DA
:10258000E6E74FF480420023504602F0D5FC30B11C
:10259000384602F06DF82846FFF73CFFE1E7336A62
:1025A0005B4504F10C04DCD108F10108A8E76FF0E9
:1025B0008504D8E76FF00F04D5E700BF0000AD0B2E
:1025C0000B00AD0B036803F01F025B09026004D02F
:1025D000012B034818BF002070474FF0A040704700
:1025E000000300502DE9F04FDFF89881DFF8989153
:1025F00085B01546824600EB8101514503D100208C
:1026000005B0BDE8F08FDAF80030D804C3F34322F8
:1026100003F07F0400F1AF807F2C4FEA134318F8DA
:10262000027008BF4FF0FF34222B00F2A780DFE8D2
:1026300003F0122228432B3243A5A5A5A54672A577
:10264000A5A5A5A5A5A5A5A575808386A5A5A589EC
:102650009194979A9D00C5F80C45601C18D003A86A
:102660000394FFF7AFFF039B012606FA03F3C0F8BC
:102670000835B3462CE0C5F81445631C08D0002685
:10268000F7E7C5F80845E8E7621CC5F8084570D1CA
:102690000AF1040AB1E7631CC5F80C45F8D001261D
:1026A00003A80394FFF78EFF039B4FF0010B0BFA77
:1026B00003F3C0F80C350BE0C5F81045DDE7C5F8AD
:1026C0000845002FD9D1671CE2D00026B346062763
:1026D000DAF80030019303F40052002A03A81CBF6B
:1026E0004FF0000B01260394FFF76CFF039A019B48
:1026F00000EB8200C3F3C114D0F800273B0243EA89
:10270000840343EA0B0302EA0902134343EA460344
:10271000C0F80037BCE7C5F80C45D2E7C5F86045FE
:10272000661CDAF80030B3D0C3F38033002BB6D088
:1027300095E7C5F86445F3E7C5F86845F0E7C5F8DF
:102740006C45EDE7C5F82445621CA1D04FF0000BA5
:102750000126BDE7C5F828457FE7C5F83045F3E712
:10276000C5F83445F0E7C5F83845EDE7C5F83C4510
:10277000EAE7002694E76FF0150041E76FF0850067
:102780003EE700BFB3A90000F0F8FCFF036803F0C8
:102790001F025B09026004D0012B034818BF002010
:1027A00070474FF0A04070470003005002480021DE
:1027B000C2E90001002070470024F400F7B5446826
:1027C0000569A66B01AA0021304606F06DFB0028C2
:1027D0003FDB019B326819791868FFF703FF002877
:1027E00037DB00210E460127236801F5AC7253F850
:1027F0002230002B0EDB01A80193FFF7C7FF019ADF
:10280000D0F80435D34013F0010318BF07FA01F3E1
:102810003343DEB201310429E6D102350023012120
:1028200001FA03F232420CBF012200220133D2032B
:10283000042B25F8022FF3D100231A4604F10801D6
:10284000204601F005FD044B984214BF6FF00F00C5
:10285000002003B0F0BD00BF0000AD0BF7B51D4672
:1028600043680469D3F800C006464FF02003EFF335
:10287000118783F31288BFF36F8FE368D86838B18C
:1028800087F31188BFF36F8F6FF00F0003B0F0BDB7
:10289000DA60E36899604FF48003CCF8043301F008
:1028A0006043B3F1005FE36811D11961E3685A61D5
:1028B0002146304606F018FD87F31188BFF36F8F6D
:1028C000E37A012B01D16B1C06D10020DEE7D86131
:1028D000204606F082FCEBE70B480C4AE46825EA48
:1028E000E5754FF4004600210023C5FB0601FDF706
:1028F00007FC203402460B4600200021CDE90001F0
:10290000204603F00DF8E0E73F420F0040420F0081
:102910002DE9F7430746002201210220FEF7EAFED7
:102920000220FEF7B7FE7E683D6934684FF000086C
:10293000C4F800852F60D6F80C9001AA414648469D
:1029400006F0B2FA002839DB019BD9F8002019798A
:102950001868FFF747FE002830DB6B7AD7F810C005
:10296000012B03D0032B27D14FF01008AB7A032B98
:1029700022D1E97A09B101291ED12A7A12B1022A9B
:102980001AD10E226B687868B3F5164F006800F014
:10299000E88034D8B3F5165F00F0E6801AD8B3F5B6
:1029A000966F00F0E3800CD8B3F5967F00F0E180DD
:1029B000B3F5167F00F0E0806FF0850003B0BDE84E
:1029C000F083B3F5166F00F0DA80B3F5965FF3D1BC
:1029D000804B45E0B3F5E14F00F0D48008D8B3F563
:1029E000615F00F0D180B3F5964FE5D17A4B37E0C7
:1029F00047F6122E7345DFD14FF4000330E0B3F5F4
:102A0000613F00F0C38015D8B3F5963F00F0C18058
:102A10000AD84DF6C02E734500F0BD80B3F5614F66
:102A2000CAD14FF46B031BE0B3F5E13FC4D14FF0C3
:102A3000EB7315E0B3F5612F00F0B0800AD8DFF832
:102A40009CE1734500F0AD80B3F5E12FB4D14FF0B8
:102A5000E86305E0DFF888E17345ADD14FF08053BE
:102A6000C0F824357B6841EA08011B680A43C3F8B3
:102A70006C25D5E901010CF1040383E803007368B8
:102A8000990713D505F11C0001F03EFB554B984208
:102A900040F09C80287F04F10C0204F5907106F050
:102AA00055FD2B7F0120984000F032FEEB68002B93
:102AB0007AD07B68D7F810801B680422C3F80423FF
:102AC000D8F80C100122C1F8C0204749C3F80413FC
:102AD0000821C3F80015D3F84C11A1B15A60D3F8FE
:102AE00044211AB9D3F82421002AF8D00022C3F8CF
:102AF0004C21D3F84C11C3F81021D3F81011C3F8AE
:102B00004421D3F84431D8F80C00384900228030F1
:102B100007F063F8D8F80C30C3F8B480D8F80C008C
:102B200033490022203007F058F8D8F80C30C3F8A9
:102B3000548073689A075CBF4FF48073C4F8043301
:102B40007368DB0644BF4FF48003C4F804336B6939
:102B5000C4F8443500200123C4F84805A360E360AD
:102B60002CE74FF41D037BE7224B79E74FF49E23BC
:102B700076E74FF4A03373E74FF41C3370E74FF45C
:102B80001D236DE71C4B6BE71C4B69E74FF06C7323
:102B900066E71B4B64E74FF4650361E74FF0706332
:102BA0005EE74FF080635BE70823C4F80035337AB3
:102BB000002BBED1C4F81031D4F81031AB69C4F881
:102BC00034350123C4F838352360B2E76FF00400D0
:102BD000F4E600BF00B0130000A04E0090D0030048
:102BE00040420F000000AD0B10020A0035940000B7
:102BF000099500000050270000C0750000F03A0061
:102C000000903A012DE9F041044605690E4606F0B0
:102C100094FEB0B92A4B1B789BB16427606806F01C
:102C200053FB002838D1012006F08EFC013FF5D17E
:102C30000021212002F088FCEFE781F31188BFF327
:102C40006F8F4FF02003EFF3118183F31288BFF3EE
:102C50006F8FD4F8048040460F4606F035FB0028FD
:102C6000EBD0EB685BB1DA684AB1D3F8BC20002A3C
:102C700005DAD8F80020D2F84C25C3F8BC206B69DF
:102C80001E7069690122204606F0C4F987F3118895
:102C9000BFF36F8FBDE8F0814FF02003EFF3118198
:102CA00083F31288BFF36F8F60680F4606F00CFB4A
:102CB0000028E4D181F31188BFF36F8FB8E700BF1C
:102CC000321C00202DE9F04143681D680369D5F8E6
:102CD000081188B0044669B10022C5F80821D5F86A
:102CE0000821DA68D2F8B8300133C2F8B83008B039
:102CF000BDE8F081D5F8243123B3C5F82411D5F807
:102D0000243143681B68D3F88064C3F880641422BC
:102D100003A807F02CF80623F2078DF80C3000F119
:102D20000C81B30700F10B81770700F10A8106F0EF
:102D30000806204603A98DF8106006F093F9204696
:102D400006F026FAD5F81031002B33D0D5F804332D
:102D5000D8062FD54FF00008C5F810812669D5F8A0
:102D6000103163681F68F368012283F8CE20F06891
:102D7000803006F03EFFF268D7F83C1592F8C93073
:102D800082F8C980F268106E1B1A0B44106F23EA98
:102D9000E37108444345106702DD204606F069F9F7
:102DA000F16891F8CA3003F0FF02002B40F0CB80AD
:102DB00081F8CE20D5F84C3183B3D5F810616EBBC5
:102DC000C5F84C6114222769D5F84C31314603A867
:102DD00006F0CDFF032303A920468DF80C3006F042
:102DE00041F9FB685A6F511C18D0DA67FF688F49A8
:102DF000B86F8F4A20EAE07C8E464FF4004031469F
:102E0000CCFB00E100237046FDF77AF902460B4641
:102E1000CDE9000107F1800002F082FDD5F84431D0
:102E200063B3D5F810614EBBC5F844612769D5F886
:102E30004431F968D4F804805831204606F032F95C
:102E4000F9682046643106F02DF9FB6883F8CA6002
:102E5000FB6893F8CB2032B183F8CB6060683246D0
:102E6000314606F0D2F9D8F80430D80603D502214D
:102E7000204606F0FFF9204606F02CF9D5F820315F
:102E8000DBB1D5F80433D90517D563681B684FF05B
:102E90002001EFF3118281F31288BFF36F8FD3F813
:102EA000201131B10021C3F82011D3F820110121E4
:102EB000D96082F31188BFF36F8FD5F85831002B9A
:102EC0003FF415AFD5F804335A027FF510AF6368AD
:102ED0002569D3E90073DB0666D4EB689B68002B99
:102EE0003FF405AF4FF02003EFF3118283F3128814
:102EF000BFF36F8FEB68D3F8BC100029ACBFD3F8D9
:102F0000BC60D7F84C6582F31188BFF36F8FEB6814
:102F100093F8CD20002A54D04FF02003EFF3118610
:102F200083F31288BFF36F8F2946204606F0DCF941
:102F300086F31188BFF36F8FD9E60126F9E60226E2
:102F4000F7E60426F5E65831204606F0ABF84FF0D8
:102F50002003EFF3118183F31288BFF36F8FF368BF
:102F60005A6EF2B19A65F3689A6EDA65F2680023D8
:102F70005366F2689366F2681366D7F84C310BB962
:102F800001233B60D7F8003223F02003C7F800325A
:102F900081F31188BFF36F8FF368002283F8CE208E
:102FA00008E701237B60F3E74FF48003C7F8083399
:102FB0000121204606F05EF9EB68DB68002B8CD11E
:102FC00095E699681A6991420CD05969DA69B1425B
:102FD000324428D1DA61284606F0FFF800289BD158
:102FE000EB68DE69E868203006F003FE1422002159
:102FF00003A806F0BCFEEB689A68CDE90426DB68FE
:103000009E421CBF01238DF80C304FF48003C7F89B
:103010000833EA6800239360EA6803A9D360204676
:1030200006F020F863E61646DCE700BF3F420F00DB
:1030300040420F0070B5012383400E4ABFF35B8FFF
:10304000DC4352E8001F01EA040542E80056002E66
:10305000F7D1BFF35B8F4FF4803282400648C0F84F
:103060000823BFF35F8FBFF36F8F0B4214BF0120A4
:10307000002070BD840B00200010014070B40E4988
:10308000D1E90034D01AC31844F1000422F07F467D
:10309000C1E90034A6F50013B3F5400F09D2074B80
:1030A0001B681A0A1B069C19054B42F10005C3E96F
:1030B000004570BC02F03EBB08040020880B0020D5
:1030C0001004002011B3BFF35B8F0123104A83402B
:1030D00052E800CF4CEA030C42E800C10029F7D1C6
:1030E000BFF35B8F0B4A4FF480338340C2F8043345
:1030F000094BBFF35B8F1B68BFF35B8FC340DB07DC
:1031000042BF064B4FF40032C3F80021704700BFA6
:10311000840B002000100140800B002000E100E043
:103120000D4B1868010A0006BFF35F8F0B4BD3F8F5
:103130000435181841F10001B3F5801F0AD2084B7D
:10314000D3E90023904271EB030303D210F18070A6
:1031500041F10001704700BF880B002000100140C2
:10316000100400202DE9F04F85B016461F469DF84B
:1031700040A00446FFF75EFF0190FFF7D1FFB04289
:1031800071EB070354D23E4B301A67EB01019842B2
:1031900071F100014FD23B4B03EB0413D3E902233F
:1031A0009F4208BF96425ED037494FF4803804F101
:1031B000500508FA04F8AD00C1F848832046ADB2C6
:1031C00006F0A6F926F07F4B05F1804504F5A873BB
:1031D00005F58835DC464FF003090293029A2CF07E
:1031E0007F4341F82230C1F84483D1F80435274A9F
:1031F0006FF00200C01A604420F07F40904232D944
:10320000286868B1D1F804350393A3EB0B0020F0D4
:103210007F40B0F5000F26D9204606F079F9039BD0
:10322000BAF1000F07D109EB030C09F10109D5E749
:10323000BAF1000F09D06FF0150520460199FFF78C
:1032400041FF284605B0BDE8F08F0123104ABFF3C7
:103250005B8FA34052E8000F184342E800010029A9
:10326000F8D1BFF35B8F07490E98230101EB0412DD
:10327000C8500F9B5360C2E902670025DDE700BF1D
:1032800001008000F803002000100140FDFF7F00D6
:10329000800B00207FB51C4C1C4BC4F80833C4F8CD
:1032A00048331B4B00254FF0FF304FF0FF31C4F87F
:1032B0000855C3E902014FF48033C4F80433154BB9
:1032C00002264FF400320121C4F804631120C3F830
:1032D00080212A46FEF70EFA1120FEF7DBF90E4A8E
:1032E0000123A360236013600C4B0D4A0093CDE9CA
:1032F000015500232846FFF735FF3046FEF7FEFC58
:10330000284604B070BD00BF0010014003000F004C
:10331000F803002000E100E0840B00207D30000075
:10332000FFFF7F002DE9F7432F4CD4F804339907B2
:103330000BD5D4F8043143B12C4A0023C4F804312E
:10334000D4F80431136801331360D4F80433DA037A
:103350002AD5BFF35B8F264B53E8002F22F00101E3
:1033600043E800100028F7D1BFF35B8FD30702D4E6
:10337000D4F84031C3B10025C4F84051D4F84031ED
:10338000FFF7CEFE4FF02003EFF3118283F3128894
:10339000BFF36F8F174BD3E90267B042B94106D232
:1033A00082F31188BFF36F8F03B0BDE8F0834FF055
:1033B000FF384FF0FF39C3E90289D3E900101D60DF
:1033C0004FF48033C4F84833C4F84051D4F8403146
:1033D00082F31188BFF36F8F0029E5D00090324649
:1033E0003B4628468847DFE700100140880B002055
:1033F000800B0020F803002030B5431C124C85B030
:1034000005D08442A8BF0446012CB8BF0124FFF7B1
:1034100087FE0E4B0C4DD3E90013401AB0F5000F98
:1034200010D22218AA4228BF2A4652184FF0000094
:1034300007490091CDE9010043F10003FFF792FE37
:1034400005B030BD2A46F0E7FFFF7F0008040020EA
:103450007D30000008B5FFF763FE024B1B68C01A01
:1034600008BD00BF0804002010B5084C01236360AC
:103470001120FEF71DF9064BC4F80833C4F8483391
:10348000044B4FF40032C3F8802110BD00100140FE
:1034900003000F0000E100E04FF08053D3F830212B
:1034A000082A06D1D3F83431052B02D8024AD05C61
:1034B00070470020704700BFE9A90000024AD2F817
:1034C0000034002BFBD0704700E0014010B54FF0F6
:1034D0008053D3F83021082A4ED14FF0804200218A
:1034E000C2F80C11C2F81011C2F8381502F54042AA
:1034F000D3F80414C2F82015D3F80814C2F8241520
:10350000D3F80C14C2F82815D3F81014C2F82C15EF
:10351000D3F81414C2F83015D3F81814C2F83415BF
:10352000D3F81C14C2F84015D3F82014C2F844157F
:10353000D3F82414C2F84815D3F82814C2F84C154F
:10354000D3F82C14C2F85015D3F83014C2F854151F
:10355000D3F83414C2F86015D3F83814C2F86415DF
:10356000D3F83C14C2F86815D3F84014C2F86C15AF
:10357000D3F84434C2F87035FFF78EFF18B13A4BD8
:103580003A4AC3F88C26FFF787FF18B1384BFB2265
:10359000C3F81825FFF780FF70B14FF080414FF05E
:1035A0008053D1F8E42ED3F8583222F00F0203F002
:1035B0000F031343C1F8E43EFFF76EFF20B12D4B1C
:1035C0004FF40072C3F840264FF08053D3F83031E7
:1035D000082B1AD14FF08043D3F80024D20744BF00
:1035E0006FF00102C3F800244FF08053D3F8343158
:1035F000052B02D8204AD35C3BB14FF01023D3F8FF
:1036000008224FF08043C3F858254FF01023D3F819
:103610000022002A03DBD3F80432002B22DA1749F8
:1036200001234FF01020C1F804351224FFF746FFA4
:10363000C0F80042FFF742FFC0F80442FFF73EFF28
:103640000023C1F80435FFF739FFBFF34F8F0C4952
:103650000C4BCA6802F4E0621343CB60BFF34F8F98
:1036600000BFFDE710BD00BF0050004048810300CF
:1036700000F0004000900240E3A9000000E001409B
:1036800000ED00E00400FA0530B50468CCB1BFF3EA
:103690005B8FB4FA84F3C3F11F03DBB201229A40BB
:1036A00024EA020250E8005FA54204D140E8002C61
:1036B000BCF1000FF6D1BFF35B8FE6D102480B706F
:1036C00030BD0248FCE700BF0000AD0B0200AD0BAF
:1036D00010B50368CB40DB0714D401238B4002688C
:1036E000BFF35B8F43EA020150E8004F944204D1DC
:1036F00040E8001CBCF1000FF6D1BFF35B8FEED1A8
:10370000014810BD0148FCE70000AD0B0400AD0B03
:10371000014BC3F80405704700F00140F7B50446BB
:1037200018B1012823D003B0F0BD4FF0804302222E
:10373000C3F808230122DA60C3F80401D3F8043186
:10374000064601238DF8073042F210754FF080478E
:10375000D4B1012CE7D1D7F80C3403F48033AEBBDD
:1037600083B3012005F0F0FE013DF4D12AE04FF0D3
:1037700080430022C3F808035860C3F80021D3F83F
:1037800000310DF10706DCE7D7F8183403F4803375
:103790003EB9002BC7D0012005F0D6FE013DF3D184
:1037A000C1E7D7F8182402F003023260002BBAD028
:1037B0009DF80700012803D105F0C6FE013DC7D1E1
:1037C000012CB0D1054B00225A71ACE7D7F80C247C
:1037D00002F001023270002BEAD1F3E78C0B0020DB
:1037E000044B1A7922B9012218609A800248704766
:1037F000024870478C0B00200000AD0B0C00AD0B95
:1038000008B5074B1B682BB10020FDF765FF08B911
:10381000FDF740FF4FF080430022C3F8182508BD94
:103820008C0B002010B510B1012843D010BD4FF013
:103830008043D3F81814D3F81824C80321D502F014
:103840000303012B04D013B10020FFF767FF00230F
:103850004FF080420220C2F8183508224FF48273DC
:1038600003F180430021196002F180421C680124A9
:103870001460154A12680AB34FF08043C3F804037A
:10388000D4E7D3F81424D107E1D5D3F81C24920748
:10389000DAD40D4A12681AB10222C3F80423C5E72C
:1038A000D3F80421002AFBD00022C3F80421D3F866
:1038B0000431BBE700224FF48073D1E71A68002A75
:1038C000FCD019601B68B1E78C0B002010B54FF0DD
:1038D0008043D3F800216AB10022C3F80021D3F855
:1038E00000210122C3F80823114B587910B95A71ED
:1038F0001B6898474FF08043D3F8042172B100222F
:10390000C3F80421D3F80421D3F81824D3F81824D9
:10391000920704D10122C3F818259A6010BD022233
:10392000C3F80823024BBDE810401B68012018476C
:103930008C0B0020036803F01F025B09026004D0B7
:10394000012B034818BF002070474FF0A04070477C
:1039500000030050034A430900F01F00D35C1844E1
:10396000C0B27047EFA9000070B50546FFF7F2FF3F
:103970000C4C08300E4634F81030DA0508D5C3F385
:10398000432304EBC302284654F833305268984767
:10399000A3682BB1E26831462846BDE8704018475D
:1039A00070BD00BF6001002008B5FFF7D3FF034BD7
:1039B000083033F81000400B08BD00BF6001002044
:1039C00008B5FFF7C7FF034B083033F81000C0F30A
:1039D000400008BD6001002008B5FFF7BBFF034BA6
:1039E000083033F81000C0F3401008BD600100201B
:1039F000034611F0010010B5CCB20DD1A207C4F3FB
:103A0000400012D5094AD2F820055860C2F82005B6
:103A1000003818BF012008E04FF0A041D1F8202560
:103A20001A60C1F82025002AE8D010BD000300501C
:103A300010B5FFF78FFF124A083032F81030D90561
:103A40001CD5C3F3432123F4F85322F8103002F1BC
:103A50000E04002034F8023F13F4807F03D0C3F338
:103A6000432399420AD001303028F3D1002342F891
:103A700031300448BDE81040FFF72ABE10BD00BF3A
:103A800060010020D8010020F0B505460020044662
:103A9000012607468C420BD1114BD3F87C2132B161
:103AA0000022C3F87C21D3F87C3140F00040F0BD07
:103AB000E3B29B0003F580729B0806FA03F31D42F4
:103AC0000BD002F1804202F5C042D2F800C0BCF136
:103AD000000F02D01760126818430134DAE700BF04
:103AE00000600040F7B506460846FFF733FF194F60
:103AF00000F108050C4637F81530DB0727D53046AE
:103B000005F088FD2046FFF767FF40B12046FFF72C
:103B10004BFF316800F5A270002341F820302046A9
:103B2000FFF786FF002301A827F815300194FFF75F
:103B300001FF019B00EB8300074BD0F800271340E7
:103B400043F00203C0F80037044803B0F0BD044856
:103B5000FBE700BF60010020F0F8FCFF0000AD0BA8
:103B60000400AD0B2DE9FF41164680460846FFF7DD
:103B7000F1FE0D463168044609B32846FFF720FFE1
:103B800018B12846FFF728FF10BB0023CDE900330A
:103B90008DF80E308DF80F300DF10F020B462846D0
:103BA0000DF10E0105F0DEFC474A04F1080132F880
:103BB000113023F0020343F0010322F8113073683F
:103BC00063B328461F785968FFF7FAFE10B1D1B1E8
:103BD0003E4826E03C4A04F1080032F8103023F059
:103BE0002003DB04DB0C22F8103061B1032FEFD887
:103BF0007168496891F800C0D8F80010A7B90CF5B1
:103C0000A27C41F82C70304A04F1080132F81130DE
:103C100023F01C0343EA870322F81130B3684BBB3F
:103C20002B4804B0BDE8F08101EB8C0143EA4C3332
:103C3000D1F810E52EF0030EC1F810E5D8F8001009
:103C400001EB8C0E43F02003DEF8101522F8103043
:103C500021F44F3121F44071CEF810152902DEF81D
:103C6000108501F47C5141EA074141EA0801CEF890
:103C70001015C8E7D3E900672846FFF7D9FE002EE4
:103C8000CED0114DD5E90023964203D19F4201D1F8
:103C9000002209E00F480DF10F01FFF7F5FC0C4B76
:103CA0009842BED19DF80F2045F8326005EBC20363
:103CB00008345F6035F8143043EA422343F48073DC
:103CC00025F81430ACE700BF600100200400AD0B04
:103CD0000000AD0BD80100202DE9F0430C4685B063
:103CE0008046204611461E46FFF734FE054629B39E
:103CF0002046FFF765FE18B92046FFF76DFE18BB9A
:103D0000314F05F1080937F8193013F01C0F02D0B4
:103D10004B78012B18D001238DF80F300023CDE90B
:103D200000134A1C8B1C20460DF10F0105F01AFCF4
:103D300037F8193043F0030327F81930002E41D02B
:103D40002046FFF73DFE18B9204805B0BDE8F083D6
:103D500096F800C0D8F800301B4F0CF5A272002175
:103D600043F8221005F1080237F8121021F0200163
:103D7000C904C90C27F8121075781DB3D8F80000D3
:103D8000B67800EB8C002D04D0F8103523F499138D
:103D900023F4F853C0F81035230203F47C5305F4E0
:103DA00040353605D0F810E52B4306F4801641EA7D
:103DB0004C31334341F0200143EA0E0327F812103F
:103DC000C0F810350248C0E7600100200400AD0BC8
:103DD0000000AD0B014BC3E90212704760010020E7
:103DE00010B508461446FFF7F7FD50B10846FFF737
:103DF000B1FD054B083033F8103004485B0B2370DD
:103E000010BD0348FCE700BF600100200000AD0BBF
:103E10000400AD0B70B5184E96F8804005464CBBBB
:103E20002146602206F1100005F0A1FF2D68306FD9
:103E30002146884212D10023C5F87C3145F3073072
:103E4000D5F87C31FDF726FC4FF00043C5F804336C
:103E50000A48012386F88030B36770BDCBB29B005F
:103E600003F580727C2B08BFAC5001F1010108BF43
:103E7000AB58DEE70248F0E7600100200000AD0B20
:103E80000C00AD0B034B93F88000003818BF0120E5
:103E9000704700BF600100200148FFF719BC00BF58
:103EA000D40100200148FFF7EFBB00BFD401002080
:103EB00073B5054608460C461646FFF78DFD00B360
:103EC0000846FFF77DFD0146D8B92046FFF76CFD97
:103ED00004B2A40004F58072034628688150296862
:103EE00082582144D1F8102542F00102C1F8102572
:103EF0002EB12968012202FA03F3C1F8043302B09B
:103F000070BD2046FFF726FD0F4B083033F8103008
:103F1000C3F38203042B12D0052B12D001A8019405
:103F2000FFF708FD019AD0F81035D34003F00103E4
:103F3000991C204602B0BDE8704005F05CBB03212F
:103F4000F7E70221F5E700BF600100202DE9F04FFF
:103F5000694BDFF8A881D3F80403D8F87010C0B219
:103F600089B040F00040FFF78FFD051E2FDAC246F2
:103F700000235AF87C1F06A8CDE90633FFF738FD69
:103F80005F4B01930DF118094FF0000B019A12F8E5
:103F9000013B0192DA0803F007031AF8022022FA23
:103FA00003F3DA071CD409F10409BBF1000F14D0A4
:103FB000D8F870104FF00040FFF766FDD8F87C107D
:103FC00006A8FFF715FD0028DAD125F000450124E9
:103FD000002D79D109B0BDE8F08F4FF0010BD5E786
:103FE000484B5B440293D9F800100029DBD0029BB8
:103FF00091FAA1F11C78B1FA81F141EA441420460A
:10400000FFF7A8FC0830059438F81070C808BB0802
:1040100019F80020039301F00701012303FA01F1CD
:1040200022EA010209F8002005A8FFF783FC059A9F
:10403000039B02F5E072C7F3820650F822205B076B
:104040003746C2F3014224D520463946D6B2FFF79F
:104050008BFC05A80594FFF76DFC059B03F5E07349
:1040600050F82330C3F301439E4207D1002120467C
:1040700005F0C1FA3146204605F0BDFA05A80594C1
:10408000FFF758FC059B012202FA03F3C0F8203524
:10409000A9E7022A0CD10321204605F0ACFA06F06C
:1040A0000503012BEAD139462046FFF75DFCE5E721
:1040B00002212046039205F09EFA032EF3D0039AC4
:1040C000032ADBD1022EEDE795FAA5F3B3FA83F3C9
:1040D00004FA03F29B0003F1804303F5C04325EA91
:1040E0000205D3F81005D3F81015C0F30520C1F36D
:1040F0000141FFF739FC6BE70060004060010020E0
:10410000FFA90000FFA9000001460148FFF7BCBA63
:10411000E4010020036803F01F025B09026004D081
:10412000012B034818BF002070474FF0A040704794
:104130000003005070B505790A4C14236B43E61850
:10414000E35833B90068022105F0C1FA08B1012330
:104150003372142303FB0544207A023818BF012070
:1041600070BD00BF940B00202DE9F3470B7F044680
:104170006BBBDFF8D8900D1F01F1100601F10C08A0
:10418000012755F804AFBAF1FF3F1CD03378CDF8C2
:1041900004A001A8002B50D0FFF7BCFF019B07FA39
:1041A00003F3C0F8083501A8CDF804A0FFF7B2FF6B
:1041B000019B00EB8300D0F8003703EA090343F0CA
:1041C0000303C0F80037A84506F10106D9D191F8DC
:1041D0001DC00D8B4F7D8E7D8A7EC87E2368BCF10D
:1041E000000F0BD1D1E9008ED1E902C1C3F860857F
:1041F000C3F864E5C3F868C5C3F86C1542EA002249
:10420000C3F80C75C3F80465C3F80855C3F8102546
:1042100020680023C0F81031D0F81021C0F8083110
:10422000D0F80821C0F80C31D0F80C3140F3073039
:1042300002B0BDE8F047FDF72DBAFFF76BFF019B19
:1042400007FA03F3C0F80C35ADE700BFF0F8FCFF48
:104250002DE9F04190F804800D4C142606FB08F679
:10426000A71997F808C0BCF1000F0ED1A2517B60CE
:1042700019B10B7F3B74FFF777FF142303FB08444E
:10428000044801232372BDE8F0810348FBE700BF27
:10429000940B00200000AD0B0C00AD0B70B40C466D
:1042A0000179266815461A461A4B01EB810103EB8A
:1042B00081010368C3F82065A688C3F82465A66851
:1042C000C3F82865E668C3F82C6503682668C3F858
:1042D0004065A688C3F84465A668C3F84865E468E5
:1042E000C3F84C45046805F0010303EB5505C4F819
:1042F0001455D4070CD412F0020403D0002B14BFC1
:10430000082404240568C5F8004270BC05F0AAB969
:104310001024F7E7940B002038B5036805790022D4
:10432000C3F800220368012204465A6071B1204696
:10433000FFF700FF0028FAD023680022C3F8002509
:10434000054B142202FB053301221A722046BDE8F8
:104350003840FFF7EFBE00BF940B002030B500F0EF
:104360001F04400911D0012812D10C4800EB840031
:104370001B02D0F800570A4C43EA82022C4042EA62
:1043800041012143C0F8001730BD4FF0A040EDE7D8
:1043900004F5E074002353F82430FFDE00030050DE
:1043A000F0F8FCFFCB7B10B433B9D1E900420368CD
:1043B000C3F80845C3F80C2503688A68C3F82425A8
:1043C00003793C225343054AD3582BB1006810BCF3
:1043D00040F30730FDF75EB910BC7047BC0B0020FE
:1043E00013B53B4B01930023C0F80431D0F80421EE
:1043F000C0F82431D0F82421C0F81C31D0F81C2199
:10440000C0F80831D0F80821C0F800324B6381F8B9
:104410002F300123036291F82D209A4218BF836048
:104420004B6B8A6A934204460ED24A6AD35CC0F848
:104430001C350B6803B340F286238B608B682548DC
:10444000C4F8043302B010BD91F82C3013B101232D
:10445000C361EEE70B6A13F0400F4FF0010316BF84
:10446000C361436181F82D30E3E7204605F05BF935
:1044700028B1019B013B0193019B002BF5DC91F8D6
:104480002F305BB91348019B002BDBDC0023C4F801
:10449000003505231048C4F80035D3E7D4F8C434F8
:1044A000C4F8C4348BB10D4A0B4813F0010F18BF88
:1044B000104613F0020F02F1010218BF104613F06C
:1044C000040F074B18BF1846DDE70348DBE700BFC2
:1044D000A08601000000AD0B0100AD0B0000AE0B8B
:1044E0000200AE0B13B5334B01930023C0F8043127
:1044F000D0F80421C0F82431D0F82421C0F81C31B0
:10450000D0F81C21C0F80831D0F808214B6381F89D
:104510002F308B6A012B044617D10B6A5B0614D42B
:104520000223C4F800320123236291F82D20022ACD
:1045300018BF23600B688BB140F286238B608B68B9
:104540001D48C4F8043302B010BD0123E9E720463A
:1045500005F0E9F828B1019B013B0193019B002B79
:10456000F5DC91F82F305BB91348019B002BEADC96
:104570000023C4F8003505231048C4F80035E2E7ED
:10458000D4F8C434C4F8C4348BB10D4A0B4813F0CA
:10459000010F18BF104613F0020F02F1010218BFFD
:1045A000104613F0040F074B18BF1846DDE7034809
:1045B000DBE700BFA08601000000AD0B0100AD0BE2
:1045C0000000AE0B0200AE0B2DE9F84390F804900A
:1045D0001C4E07463C2000FB09F035180C4695F8A8
:1045E0002E1061BBA96032506B6085F82D1085F8E4
:1045F000311085F83010CCB1637B85F8383094F8F1
:104600000E8085F83980B8F1000F0BD120680623A1
:1046100003224146FFF7A2FE6068062303224146BB
:10462000FFF79CFE21463846FFF7BCFE3C2303FB08
:1046300009660548012386F82E30BDE8F883034853
:10464000FBE700BFBC0B00200000AD0B0C00AD0B66
:10465000036802790521C3F80015044B3C2101FBD6
:104660000233022283F82E20704700BFBC0B0020CB
:1046700003680B4A0179C3F80823D3F8002222F01B
:104680000302C3F800220022C3F80025054B3C209A
:1046900000FB0133012183F82E1083F8302070478E
:1046A00086420400BC0B00202DE9F047314F04790D
:1046B000D0F800903C2303FB04730D4693F82D3093
:1046C000012B944604D10B78012B06D12A4811E026
:1046D000022B02D10B78012BF8D13C26274BC9F8CD
:1046E000083306FB047696F830302BB1B3682448C3
:1046F000C9F80433BDE8F0878CF00403C3F38003EA
:1047000086F83030C6F820C0A846B8E80F0006F199
:104710000C0EAEE80F00D8F80030CEF800306B6811
:10472000B362EB6873626B78C9F888352B78C4EB99
:10473000041A012B07EB8A0A17D09BB9CCF3401C53
:104740003C2303FB04735146484683F82CC0FFF713
:1047500047FE3C235C433A193B59002BCAD182F8EF
:104760003030C7E74FF0010CEAE751464846FFF703
:10477000B9FEEEE7BC0B00200500AD0B864204003D
:104780000B00AD0BF0B5324C324887B0214604F037
:10479000CAFF002859D194F82F70FFB9227B931ECD
:1047A000012B1BD8606AA369984217D1E369636241
:1047B0006369A362236A274884F82D70C3F340130A
:1047C000032A84F82C3004D107B0BDE8F040FFF78D
:1047D00007BE07B0BDE8F040FFF784BE1E4E0FCE07
:1047E00001AD0FC533682B6047B31A4AD2F8C43401
:1047F000C2F8C43413F0020106D001238DF8003052
:10480000002384F8303007E013F0040209D00223BB
:104810008DF8003084F83010D4E9003168469847AC
:1048200013E013F0010305D003238DF8003084F862
:104830003020F1E704228DF80020E2E7236A8DF8AA
:1048400000705B0784F83070E6D507B0F0BD00BF9C
:10485000BC0B002000300040C80B0020036803F0B0
:104860001F025B09026004D0012B034818BF00201F
:1048700070474FF0A040704700030050F7B5064660
:1048800004F0E9FF084604F0E6FF01A80196FFF7EF
:10489000E5FF019B2E4D00EB83000C46D0F800375E
:1048A000019440F20D612B400B43C0F8003701A882
:1048B000FFF7D4FF019B00EB83000127D0F80037FE
:1048C0002B400B43C0F80037042004F03DFE0925BF
:1048D00001A80194FFF7C2FF019AD0F81035D34028
:1048E000DB0715D401A80196FFF7B8FF019B07FA73
:1048F00003F3C0F80C35042004F026FE304604F023
:10490000AAFF013D042004F01FFE15F0FF05DFD1D2
:1049100001A80194FFF7A2FF019A01239340C0F878
:104920000C35042004F010FE204604F094FF04200F
:1049300004F00AFE01A80194FFF790FF019AD0F855
:1049400010350448D34003F00103C01A03B0F0BD92
:10495000F0F8FCFF0100AD0B08B5144BA8220021B4
:10496000184605F004FA0322026111494261114A16
:104970008161C2614FF480620262002282624262FF
:10498000C26201660C4941661021816603460267D6
:10499000C2664267BFF35F8F084911F8010D985452
:1049A0000132102AF9D1BFF35F8F08BDF80B002048
:1049B00001AA000032180020221800201AAA0000C4
:1049C00038B54FF02003EFF3118583F31288BFF35E
:1049D0006F8F064B9C6804F0A7FD85F31188BFF329
:1049E0006F8F2046BDE83840FCF7E4BDA40C0020E2
:1049F000104B70B553F82040013053F82060A642A8
:104A000000D870BDD4E9003595B153B12846984718
:104A100038B10028B8BF4042EB68FF28A8BFFF208C
:104A20001870EA68537843F0010353700834E6E7DE
:104A30009847FBE754A3000008B50A4B0122032066
:104A40001A70FFF7D5FF00F0A5FF0420FFF7D0FF95
:104A500000F04CF9FBF7C6FD034A137B23F001037A
:104A6000137308BD321C00209804002008B50348C9
:104A7000034A0021121A04F012FF08BDF8020020B8
:104A8000341C002070B5002386B00122CDE9042338
:104A9000194E1A4D01930F22CDE902321849142301
:104AA00003FB005506EBC01604464FF4C070154BCF
:104AB00000954FF4A07200FB0411304600F0D6F8C8
:104AC000737B114AEE6023F0040373734FF40463A5
:104AD00004FB033313446B600C4B2C74BFF35B8FEC
:104AE00053E8001F013143E80012002AF8D1BFF358
:104AF0005B8F06B070BD00BF18040020A40C00201E
:104B00000035002047990000C02C0020A00C002098
:104B100080B50020A6B0FFF76BFF2D4B83F308880C
:104B20002C4D2D4E6B692D4F43F400736B610024A7
:104B3000E02385F82230EC772C766C76AC7685F81D
:104B400020406B6A43F4E0236B6285F82340FCF756
:104B50009FFCFCF751FE4FF0FF33AB62EB62FCF7BA
:104B6000F3FEFCF789FE40F20113ADF8243006ABEA
:104B7000B360CDE91E44219404F085FE0120FFF7C7
:104B800037FF0220164DFFF733FF00F053FC154BA3
:104B900075610593012314490094CDE903434FF453
:104BA00000623B46CDE90144284600F05FF86A7B8D
:104BB000064622F0040228466A7304F025FF2046C8
:104BC000FFF760FF3A4631462846FCF7F9FD00BF83
:104BD0000035002000ED00E0A40C0020394A000060
:104BE000980400201BAA00008036002038B5064C2F
:104BF000064D0020AC4200D338BD204604F053FEE1
:104C00000028F9DB1C34F5E77A0200207A02002044
:104C100073B50C464FF02005EFF3118185F3128830
:104C2000BFF36F8FC5685DB125602B68C360836972
:104C300001338361002081F31188BFF36F8F11E08E
:104C400052EA030603D125606FF00B00F3E7CDE9CC
:104C500000230246083000F029FB18B9024B9B687C
:104C60005B69236002B070BDA40C00202DE9F04305
:104C700085B00732994600F1580322F00706C0E9D3
:104C80001633109B037306F140050423002743737A
:104C90000D440F9B83738846C0E9067729468760D9
:104CA000C7730446FCF774FA08F140030730C4E9FF
:104CB000183620F007000E9BA06602930D9B01930F
:104CC0002D1A0C9B00932A464B4641462046FCF782
:104CD00045FD054B67659B6803B1DB6EE3662846BF
:104CE00005B0BDE8F08300BFA40C002070B5224CD5
:104CF000224D86B02646AE4204F130040AD300F0BD
:104D000069FB1D4C1E4EAC4220D306B0BDE870407E
:104D100000F074BB54F80C3C059354F8103C049319
:104D200054F8143C039354F8183C029354F81C3C78
:104D3000019354F8203C009354E90A2354E90C01F0
:104D4000FFF794FF54F8303C5E65D3E7D4E90A23BB
:104D5000B3F1FF3F08BFB2F1FF3F05D052EA0301B4
:104D6000206803D100F018FB3034CCE7314618300E
:104D700000F06AFCF8E700BF60A00000C0A00000DF
:104D8000C79A000038B5836804466BB3194A926825
:104D900093422CD1C368012B03D9013BC36000208F
:104DA00038BD4FF02003EFF3118583F31288BFF372
:104DB0006F8F0169806804F0D2FD204604F09EFEEA
:104DC000A06058B190F90E2022610022826704F0A1
:104DD0001BFE0948294600F0CDFAE0E7E06085F3C4
:104DE0001188BFF36F8FDAE76FF01500D8E74FF047
:104DF000FF30D5E7A40C0020331C00202DE9F3413F
:104E0000044617461E464FF02003EFF3118883F344
:104E10001288BFF36F8FC368334A7BB18068916893
:104E2000884219D057EA060318D188F31188BFF3D6
:104E30006F8F6FF00F0002B0BDE8F081916891F9BB
:104E40000E1021610133E3609368A36088F3118839
:104E5000BFF36F8F0020EEE72169F2E791F90E10A2
:104E600090F90E309942A8BF19466FF07E02914228
:104E7000B8BF11468B422EDD04F071FD0546CDE929
:104E800000761A482246414600F010FA0028E1D088
:104E90004FF02003EFF3118683F31288BFF36F8F77
:104EA000A068D0B1236821699C420AD04BB193F924
:104EB0000E309942A8BF19466FF07E039942B8BFE1
:104EC000194604F04CFD40B10848314600F052FA52
:104ED0006FF00A00AFE70025D1E7002DF4D186F38B
:104EE0001188BFF36F8FF3E7A40C0020331C002060
:104EF00038B504464FF02003EFF3118583F3128891
:104F0000BFF36F8F04F0FAFD48B10022826704F00E
:104F10007BFD29460748BDE8384000F02BBAD4E9AC
:104F200002329A4218BF0133A36085F31188BFF3A0
:104F30006F8F38BD331C002013B54FF02004EFF302
:104F4000118184F31288BFF36F8F846844B1013CF0
:104F5000846081F31188BFF36F8F002002B010BD11
:104F600052EA030406D181F31188BFF36F8F6FF00B
:104F70000F00F3E7CDE900230246024800F096F95E
:104F8000ECE700BF331C0020C3897F2B12D80A4BEB
:104F90001B6863B1094B90F90E201B689A4209DB2C
:104FA000437BDB0606D1064BC31A18BF012303F06F
:104FB000010070470023FAE7EC010020E80100201F
:104FC00018040020044BC01A044BC0105843044B73
:104FD00001221A54704700BF18050020ABAAAAAAE4
:104FE000331C002070B50E4B0E4C1E7C06EB4603A6
:104FF00004EBC3040546204604F0D3FD0A4B00220F
:1050000028469A55FFF7C0FF48B1084B08491A686F
:10501000013A2046D317BDE8704000F015BB70BDC3
:10502000A40C002018050020331C0020EC010020F7
:10503000C54F000038B50D4D2B4653F8184F9C4214
:1050400000D004B9EC68AB6838B95A7BD20604D1F9
:10505000A26912B9DA897F2A05D89C4202D020467B
:10506000FFF7C0FF23466B6138BD00BFA40C0020D2
:1050700070B590F90D20437B002A014604DA03F055
:105080007F03437304F086FC4B7B154A63F07F0378
:1050900010464B7350F8183FD469834208BF002371
:1050A00023B9C1E900042160D1610CE091F90E50EF
:1050B00093F90E60B5420ED0AE420CDD5868C1E9DE
:1050C0000030016059609068431A5842BDE8704052
:1050D0005841FFF7AFBF9C42E3D01B68E0E700BF39
:1050E000A40C002070B490F90D30427B002B29DB1A
:1050F000D30627D183692BBB134962F07F02427329
:105100000A4652F8184F944218BF2346CC6923B977
:10511000C0E900242060C8610CE090F90E5093F9BA
:105120000E60B5420AD0AE4208DD5A68C0E90032CE
:105130001060586070BC0020FFF77CBFA342E7D02E
:105140001B68E4E770BC7047A40C002008B590F918
:105150000D20437B002A014604DA03F07F034373EA
:1051600004F018FC044B9868431A58425841BDE8B3
:105170000840FFF75FBF00BFA40C002070B51546C4
:105180001C46064604F018FCB4F1FF3F08BFB5F119
:10519000FF3F08D02A46234606F118000249BDE821
:1051A000704000F051BA70BDC79A00002DE9F0417F
:1051B000002A437B0E460CBF1021082119420446E9
:1051C0000AD10B43DD0903F09F0211D14273082974
:1051D00014D00120FFF72EFF1B4B9B68A3422CD15C
:1051E000EFF305834BBB3046BDE8F041FCF7F8B95F
:1051F00003F01F03437304F0CDFBE8E7A36813B18A
:10520000204604F0CFFB04F1180004F0CAFC04F1BE
:1052100058074FF00008A56DBD42DAD0002DD8D058
:10522000284604F0BFFB05F1180004F0BAFCC5F8ED
:1052300078802846FFF756FFEDE786F31188BFF325
:105240006F8FBDE8F08100BFA40C002038B54FF08F
:105250002003EFF3118583F31288BFF36F8F104B98
:10526000104A9C681068A04206D1FFF7BBFE85F388
:105270001188BFF36F8F38BD00211B7C11600A4A73
:10528000D35C002BF3D02046FFF77EFE0028EED043
:10529000637BDB0602D12046FFF7EAFE2046E4E707
:1052A000A40C0020C40C0020331C002070B50C4856
:1052B0000C4D86682E600C461146DDE904234FF044
:1052C0002006EFF3118586F31288BFF36F8F806895
:1052D000FFF754FF2046BDE87040FCF781B900BFDE
:1052E000A40C0020C40C0020F8B504464FF02003A5
:1052F000EFF3118683F31288BFF36F8F437BDA06D7
:1053000049B219D18569BDB903F07F03437304F035
:1053100041FB437B164A817363F07F03437313465B
:1053200053F8180F984218BF0546D0695DB9C4E913
:1053300000300460D46111E0A173002086F311886D
:10534000BFF36F8FF8BD95F90E70B9420BD08F4245
:1053500009DD6B68C4E900531C606C600120FFF735
:1053600069FE0120EAE7A842E1D02D68DEE700BF30
:10537000A40C002049B9EFF3058030B9054B5A69F8
:105380009B689A4201D0FCF72BB981F31188BFF3D7
:105390006F8F7047A40C002010B54FF02002EFF380
:1053A000118482F31288BFF36F8F427B510704D4BC
:1053B00084F31188BFF36F8F10BD22F00402427393
:1053C000FFF790FE21460248BDE81040FFF7D2BF2C
:1053D000341C00204FF02003EFF3118183F3128877
:1053E000BFF36F8F044B9A68D37B013BD37381F378
:1053F0001188BFF36F8F7047A40C002010B54FF0D9
:105400002003EFF3118483F31288BFF36F8F084BEF
:105410009A68D37B0133D3730020FFF70BFE84F32C
:105420001188BFF36F8FBDE8104004F08FBB00BF41
:10543000A40C0020024B03F11802C3E906227047B6
:10544000A40C0020F8B54FF02003EFF3118583F38F
:105450001288BFF36F8F19498868437B03F07F037D
:10546000437304F097FA8B685A7B084662F07F0218
:105470005A7350F8182FCC69824208BF002222B913
:10548000C3E900042360CB610CE093F90E6092F94C
:105490000E70BE420ED0B7420CDD5168C3E9002148
:1054A0000B6053600120FFF7C5FD2846BDE8F840BA
:1054B000FCF796B8A242E3D01268E0E7A40C002003
:1054C00050EA01032DE9F04105460E4603D1FFF7EE
:1054D000B9FF00202CE0831C71F1FF332ADB04F0BC
:1054E00076FB2C184FF02003EFF3118883F312881A
:1054F000BFF36F8F114F124BB8681860FFF726FE8D
:10550000B86810492A463346183000F09DF8BA684A
:10551000537B43F0100353734046FCF761F804F0EB
:1055200056FB201A63EB0303012873F10003D0DB61
:10553000BDE8F0816FF00104241AD3E7A40C002029
:10554000C40C0020C79A0000B1F1FF3F08BFB0F1C2
:10555000FF3F08B506D1084B986804F065FA4FF094
:10556000FF3008BDFFF7ACFF4FF47A7380FB0303F5
:10557000C00B40EA4340F4E7A40C0020014B9868BC
:10558000704700BFA40C002008B50648064A07492A
:10559000121A04F086F9BDE80840054A0549064894
:1055A00004F07FB900000020F402002060AA00008F
:1055B0000000000060AA000000000020034B1B68F0
:1055C0000BB9FDF747BF0020704700BFC80C002093
:1055D00010B50E4B1C689C4204D1FFF7EFFF6FF033
:1055E000004010BDFFF7EAFF002CF8D0D4E90432E8
:1055F0001B1A62EBE072B3F1004F72F10001EEDAB8
:10560000002AACBF18460020EBE700BFF0010020E5
:1056100030B570B10B4B5B6898420AD0036843B158
:10562000D3E90421D0E90445121941EB0501C3E98E
:105630000421D0E9003213605A600023C0E900332E
:1056400030BD00BFF0010020B3F1FF3F08BFB2F151
:10565000FF3FF8B504461D4616465CD081604FF00A
:105660002003EFF3118783F31288BFF36F8F0132AA
:1056700075F1FF3324DA2D49D1E900206FF00103E1
:105680009B1A4FF0FF3262EB00009E1B60EB05009F
:10569000012E70F1000301DA01260020C4E9046044
:1056A000234ED6F800C07568B44508BF4FF0000C13
:1056B000BCF1000F0DD1C4E900652C6074601CE0E2
:1056C000FFF77CFF013645F10005361845EBE07029
:1056D000E4E7DCE90420D4E90431934271EB000EE5
:1056E0001ADAD21ADCF8043060EB0100CCE90420AD
:1056F000C4E900C31C60CCF804403368B34206D050
:105700009C4204D1FFF764FF0021FDF775FE87F38B
:105710001188BFF36F8FF8BD9B1A61EB0001AC4598
:10572000C4E90431C7D0DCF800C0C1E7300500206F
:10573000F00100202DE9F84F4FF02003EFF3118C1A
:1057400083F31288BFF36F8FDFF8B0A0DFF8B0905B
:105750002C4FC9F80000DAF800000024504508BFBB
:1057600000200025D7E90021D9F80030E04680B3B9
:10577000D0E9046C4FEAE37EB3427EEB0C0B05DA12
:10578000F61A6CEB0E04C0E9046422E0B21841EB97
:10579000E671C0E90445C7E90021FFF739FF88F346
:1057A0001188BFF36F8F836898474FF02003EFF3A2
:1057B000118883F31288BFF36F8FD9F80030DAF8BD
:1057C00000009B1B5045C446C9F80030CAD1D7E938
:1057D00000219A1841EBE3730024C7E90023C9F8BC
:1057E0000040FFF7F5FE2146FDF706FE88F311881D
:1057F000BFF36F8FBDE8F84FFFF728BDF001002021
:10580000C80C00203005002010B54FF02003EFF346
:10581000118483F31288BFF36F8FFFF7CFFE064A20
:105820000346D2E90001181841EBE37184F31188B3
:10583000BFF36F8F10BD00BF30050020F8B50446E0
:105840004FF02003EFF3118783F31288BFF36F8FBC
:10585000026822B187F31188BFF36F8FF8BDD0E9DA
:105860000A36581C46F10001022871F1000127D3C5
:10587000012B76F10001BCBF012316465D1E46F1E7
:10588000FF3604F0A8F9013041F10001401946EB60
:105890000101012871F100013ADB04F09CF90130AB
:1058A00041F100016FF00102401946EB0103121AA9
:1058B0004FF0FF3161EB030318492046FFF7C4FEA8
:1058C000236B01332363236A73B187F31188BFF31A
:1058D0006F8F236A204698474FF02003EFF311871C
:1058E00083F31288BFF36F8F54F8185FA542B1D0CD
:1058F000002DAFD0284604F0B2F80023AB6787F341
:105900001188BFF36F8F2846BDE8F84004F07CB8DB
:105910006FF001024FF0FF33CEE700BF3D580000AB
:105920002DE9F04105461C4690461F464FF02003E6
:10593000EFF3118683F31288BFF36F8FB4F1FF3F4B
:1059400008BFB2F1FF3F05D186F31188BFF36F8F17
:10595000BDE8F081531C74F1FF3309DB012A74F1B7
:105960000003BCBF0122002412F1FF3844F1FF37CD
:10597000284604F016F9DDE906010023C5E90A010D
:105980002B63034942463B462846FFF75DFEDBE7B3
:105990003D580000014802F0B3BF00BF20AA00003C
:1059A00010B50C4C236813B10B4B1B682BB900F0DE
:1059B00029FE30B9084B01221A6001232360002020
:1059C00010BD0138062801D9044810BD044B53F816
:1059D000200010BDD00C0020CC0C0020FE8FFFFF5B
:1059E0006CA30000BFF34F8F0549064BCA6802F451
:1059F000E0621343CB60BFF34F8F00BFFDE700BFF2
:105A000000ED00E00400FA0510B4094B09490A4C06
:105A10004FF0FE32C3F800244968C3F80424C3F8E9
:105A20000824C3F80C240023C4F8003510BC084730
:105A300000B00250F801002000A00250D0E900128E
:105A4000014BC3E900127047F80100202DE9F04333
:105A5000134B144E002814BF04461C4683B0236821
:105A6000B34219D00D4620464FF4E07104F1040909
:105A7000174604F58E7800F0E9F8484600F0ACFCD3
:105A8000404600F0DBFA084900972B464A4640465C
:105A900000F0EAFA08B92660002003B0BDE8F08300
:105AA000D40C0020A5BCC95A6164000070B51D4625
:105AB0000C4B002818BF03460B481E68864282B074
:105AC0000DD1002603F58E7000963346144600F083
:105AD00017FB002818BF34462C6002B070BD034885
